:020000041000EA
:1000000000B5324B212058609868022188439860DF
:10001000D860186158612E4B002199600221596106
:100020000121F02299502B49196001219960352056
:1000300000F044F80222904214D00621196600F024
:1000400034F8196E01211966002018661A6600F04E
:100050002CF8196E196E196E052000F02FF8012189
:100060000842F9D1002199601B49196000215960AB
:100070001A491B48016001219960EB211966A021F2
:10008000196600F012F800219960164914480160C1
:100090000121996001BC002800D000471248134993
:1000A000086003C880F30888084703B5996A0420EC
:1000B0000142FBD001200142F8D103BD02B5186610
:1000C0001866FFF7F2FF186E186E02BD00000240BE
:1000D000000000180000070000035F00212200005C
:1000E000F4000018222000A00001001008ED00E03C
:1000F00000000000000000000000000074B24E7A12
:1001000000200420F7010010C3010010C5010010F9
:10011000C1010010C1010010C1010010C101001097
:10012000C1010010C1010010C1010010C701001081
:10013000C1010010C1010010C9010010CB01001065
:10014000CD010010CD010010CD010010CD01001037
:10015000CD010010CD010010CD010010CD01001027
:10016000CD010010CD010010CD010010CD01001017
:10017000CD010010CD010010CD010010CD01001007
:10018000CD010010CD010010CD010010CD010010F7
:10019000CD010010CD010010CD010010CD010010E7
:1001A000CD010010CD010010CD010010CD010010D7
:1001B000CD010010CD010010CD010010CD010010C7
:1001C00000BE00BE00BE00BE00BE00BEEFF3058054
:1001D000103800BEF2EB8871C4640010E8640010AF
:1001E0003402001090A31AE700201F49086006C8D7
:1001F00081F3088810471D48006800282FD10DA4FE
:100200000ECC002902D000F012F8F9E71849194A7B
:10021000002000E001C19142FCD1174988471749ED
:1002200088471749884700BEFDE701C901C29A42C5
:10023000FBD37047E8640010C0000020A40B00202E
:10024000CC6F00100000042000000420CC6F0010D0
:10025000001004200010042000000000704709482E
:1002600003F07AFA0047000008ED00E0000000D03B
:10027000A80B0020C00F0020B12400108905001039
:100280006D2400105756000006005250ABB3605367
:100290002064001006005250861C030230640010D7
:1002A000060052505422A29D38640010050052509E
:1002B000DE65F468CC6F0010F8B5C04610B5064C8A
:1002C0002378002B07D1054B002B02D0044800E017
:1002D00000BF0123237010BDA80C00200000000007
:1002E000D8530010044B10B5002B03D00349044829
:1002F00000E000BF10BDC04600000000AC0C0020B4
:10030000D853001096239B010360042343600133FC
:1003100083600122C26000220261044A4261044AF1
:100320008261C361034B03627047C04624540010CE
:10033000D853001020A10700F0B5394CA5440600A1
:10034000A024E400220000212000684403F06CFE99
:1003500022000021684603F067FE22006A44314B08
:1003600013CB13C211001A680A601B790B7180212C
:10037000B3692D4A4900C020C000684403F0C0F9A9
:10038000E022D2006A44294B13CB13C21B781370AE
:10039000802212016A44264B13CB13C29022120111
:1003A0006A44244B03CB03C21B881380002515E04D
:1003B000A022D2002100F06800F039F9FA20800074
:1003C00001F02AFA1C4803F05DFF042D05D11B49FA
:1003D000200004F059FD0028EAD00135042D19DC75
:1003E0002F023C006C44802252000021200003F0C8
:1003F0001BFEA023DB006B44D919F06800F0B4F9B0
:10040000C82001F009FAA022D2002100F06800F013
:100410000EF9DAE70A4803F035FF0A4B9D44F0BDB8
:10042000FCF5FFFFFC53001010540010285400107E
:100430003854001044540010505400105C54001004
:1004400074540010040A000030B53A4CA54403006F
:100450000D00802464000091374A210042A803F077
:100460004FF942A9012000F07FF900230293FC22FA
:10047000002103A803F0D8FD220002A9012000F00A
:10048000D6F801F07DFA002907DB0CD0FA229200A1
:10049000002303F0F3F9040027E0284B284A3F210A
:1004A000284801F0E7FFFA21890003F0A9F90400C8
:1004B0001BE0224B224A3F21224801F0DBFFFA21B8
:1004C000890003F09DF9001B1F4A90421ED81F4966
:1004D000012000F049F99620400001F09DF98022AA
:1004E000520002A9012000F0A2F8194902A804F064
:1004F000CBFC00280AD101F043FA0029D9DBDED079
:10050000FA229200002303F0B9F9DCE7104902A8AF
:1005100004F0BAFC002808D029000E4803F0E2FEDF
:10052000012083239B009D4430BD0B4803F0AAFEAD
:100530000020F6E7F4FDFFFF94540010A8540010CB
:1005400054550010C45400104FC300002454001030
:10055000145500102C5500102055001000B58FB018
:1005600005A8FFF7CFFE079B0193069B0293089B0C
:100570000393059B019A0299039800F01DF805A8C2
:10058000FFF7DAFE0FB000BD10B503F0B7FEFFF7BE
:10059000E5FF03496420FFF757FF002010BDC04668
:1005A00044550010002801D0014870470148FCE77D
:1005B0006402002038020020F0B5C64600B50E00E7
:1005C00090461F00FFF7EEFF04000021406A00F094
:1005D0001DFA80256D0020001030290000F024F95C
:1005E0002900200000F020F93900206A01F026FDE2
:1005F0000221300000F026F90221404600F022F9E5
:10060000A16A606A00F012FA226A50239363110013
:100610003431536B38221A4080235B010B431A603C
:10062000606A012100F0F2F980BCB846F0BDF8B56F
:10063000CE46474680B50D009046FFF7B3FF814692
:10064000002406E06F1C300000F0DFF82870013451
:100650003D00444506DA4E461036300000F0AEF854
:100660000028EFD02000C0BCB946B046F8BD10B598
:1006700082B0040005E06B46D9792000103000F00C
:10068000B2F8226A936910200100194018420BD178
:100690006B46D81D0029EED19369DB06FCD41368A4
:1006A000037001310130F5E702B010BD10B5040050
:1006B00004E0200000F0A9F8236A1860200000F090
:1006C0007DF8002803D1236A9B699B06F1D52000A1
:1006D00000F074F800280BD0226A502393631100B5
:1006E0003431536B38221A4080235B010B431A606C
:1006F00010BDF0B5C64600B50D009046FFF752FF9D
:100700000600002406E06F1C2978300000F06BF82A
:1007100001343D00444504DA300000F057F8002869
:10072000F1D00021706A00F071F9336A9A6B920679
:1007300007D5706A012100F069F9200080BCB84635
:10074000F0BD70229A63180034305A6B3821114082
:100750008022520102431160596B07230B40136042
:100760003000FFF7A3FFE4E770B505000C000800B8
:1007700004F018FA020021002800FFF7BAFF70BD4C
:1007800010B5044C2000FFF772FF2000FFF78EFF2A
:1007900010BDC0463802002010B5044C2000FFF701
:1007A00066FF2000FFF782FF10BDC04664020020F4
:1007B0000023436003608260C160704703000068EB
:1007C0005B68C01A43425841C0B2704710B504007C
:1007D0000368581CA16802F0EBFF6068081A4342E6
:1007E0005841C0B210BD70B504000D000668701C01
:1007F000A16802F0DDFF63688B4204D0E3689D5579
:100800002160012070BD0020FCE770B50400406845
:10081000E3681D5C2368984204D00130A16802F0AF
:10082000C7FF6160280070BD70B505000C00012194
:10083000200003F0DFFB010022002800FFF7B8FFD3
:1008400070BD000010B58300084A944663441C68DC
:1008500040226240C02414408022520113431C6095
:10086000C000034B9C466044416010BD04C0014081
:1008700000400140034B1B6802201840431E984172
:10088000C0B2704700C00640EFF3108072B6034B51
:100890001B68002BFBD0BFF35F8F70472C0100D08B
:1008A000BFF35F8F024B00221A6080F310887047FD
:1008B0002C0100D0F8B506000C001500FFF7E4FF8E
:1008C000E308F718F15C07222240012393400B4212
:1008D00005D1DBB20B433B70FFF7E2FFF8BD21000F
:1008E000280001F061FE0000002307E0054A9A1885
:1008F0009200BFF35F8F0021116001331F2BF5D9E8
:100900007047C04640000034054A1078431CDBB2F3
:100910001370172B02D9130010221A707047C046AB
:1009200090020020074B9B68103080001950BFF3E5
:100930005F8FBFF35F8F044B0021196082F3108833
:100940007047C04600ED00E0240100D010B5091A40
:10095000081F0A4B9C466144094A914208D8C307C4
:1009600006D440104005400D064B184380B210BD20
:10097000054B064AA321064801F07CFDFC07000058
:10098000FE0F000000E0FFFF6C550010C85700107C
:100990009C55001010B5091A04394C08090B08D1F0
:1009A0004905490D064A11430180064B2343438004
:1009B00010BD054B054AAB21054801F05BFDC04663
:1009C00000F0FFFF00F8FFFFE45500109C570010F7
:1009D0009C55001001238340034A10681840431EB1
:1009E0009841C0B27047C04600E100E0002904D041
:1009F000034B1860034B18607047034B1860FBE70C
:100A000080E200E000E100E080E100E010B50123B9
:100A100083401800FFF7EAFF10BD0000024B9B68FF
:100A200010308000C058704700ED00E070B5040041
:100A30000D00EFF3108672B60C4B1B68002BFBD039
:100A4000BFF35F8F2000FFF7E9FF094B984201D009
:100A5000A84205D1320029002000FFF763FF70BDD6
:100A6000044B054A8621054801F004FD240100D00D
:100A7000CD010010F4550010E45700109C550010F3
:100A8000F0B5CE46474680B583B006000D00EFF3C3
:100A9000108872B6564B1B68002BFBD0BFF35F8FDC
:100AA000544B9A6834001034A300D758524B9F42DD
:100AB00007D0AF4200D198E00197504BFB1A2F2B83
:100AC00009D9424639003000FFF72CFF03B0C0BC03
:100AD000B946B046F0BD3000FFF77CFF81460021EB
:100AE0003000FFF793FFBFF35F8FEFF3058100291D
:100AF00001D08C4211D10123019C9C430022A368A8
:100B0000AB4212D00622A256002A0DDB53009B18DE
:100B10009B002200394CE418F1E73621384B394A62
:100B2000FF31394801F0A6FC2200AB4256D1062520
:100B30006557002D38DB6B005B199A002F4B9B1813
:100B40009A68A260DA79E27106229A56A2719B79BC
:100B50005BB2002B0FDA2D48A0806B005B199B0065
:100B6000264AD3182A4A11789971157049463000DF
:100B7000FFF74CFFA5E7201D6B005B199B001F4A88
:100B80009B181A1D9B88D90A1C2907D15B055B1588
:100B9000023359005118FFF7D9FEDDE71D4B1E4AFD
:100BA000B121194801F066FC002912D1002A0ED0AB
:100BB000FF239371194B9380154A1378A371184B37
:100BC0000E49641A644163431B0D1370CEE70A4F4C
:100BD000F2E7201D1349FFF7DDFEC7E76A21124B3C
:100BE000084AFF31084801F045FC034F69E7C04659
:100BF000240100D000ED00E0CD010010940200209F
:100C000008570010B45700109C55001001BD00009B
:100C1000BD0F0020F0560010D457001001BDFFFF9B
:100C2000AAAA0000CE0200203C57001070B5012196
:100C300001432E4BCB1A2F2B28D8EFF30583002B23
:100C40002BD0EFF3108C72B6294A1268002AFBD021
:100C5000BFF35F8F274A0400244D641B6441624345
:100C6000120D54B2244A92689B00D2588A421BD07B
:100C70000022032A32D853009B189B001B49CB1833
:100C80009B795BB2A3421FD00132F2E7C7211B4B15
:100C90001B4A49001B4801F0EDFB92211A4B184AF0
:100CA000FF31184801F0E6FB134A92681749D1500A
:100CB000174B1A7882711C70BFF35F8F0C4B0022A8
:100CC0001A608CF3108870BD0D00530099188900CC
:100CD0006918FF268E710F4A8A80E9E7D1210E4BF1
:100CE000074A4900074801F0C5FBC04694020020AE
:100CF000240100D0AAAA000000ED00E04457001033
:100D0000805700109C5500106C570010CD0100104A
:100D1000BD0F002001BDFFFF785700100022044BDB
:100D200002E0044902C30132072AFAD97047C046DB
:100D300000E400E080808080024B9C466144890092
:100D4000016070474000003410B50400FFF7DCFD7F
:100D500001002000FFF7F0FFFF232371BFF35F8F37
:100D600010BD10B50400FFF7CFFD01002000FFF714
:100D7000E3FFFF23237100236371BFF35F8F10BD77
:100D800070B505000C00080000F0D6FE09492000EF
:100D900000F016FEFFF7B8FD074B9C46604480004C
:100DA00068602C75D0231B061B786B75A400034B61
:100DB000E55070BDC5100010400000348C0D0020BF
:100DC0000A4B1A68EFF3108172B61368002BFCD03F
:100DD000BFF35F8F054B1B68BFF35F8F00221A6064
:100DE00081F3108840BF002000217047A00F002031
:100DF00010B5002922D003681B7B99421ED8174BDF
:100E00009C466144090183689C4661440C684968BA
:100E1000002A19D003681B7B9A4215D883680F48B3
:100E20008446624412019A18106853680200012037
:100E30008B4201D80ED00020C0B210BD084B094A29
:100E40003C21094801F016FB054B064A3C210648A7
:100E500001F010FBA242EFD8EDE7C046FFFFFF0F05
:100E6000105900107C5B0010D058001010B50029FC
:100E70001ED0037B99421BD84B005B18033B0468D0
:100E8000A4466344002919D0002A1DD0914221D0E4
:100E9000002A25D0047BA24222D804685000801882
:100EA000033820188170197800291FD11A7010BDDD
:100EB000104B114A6821114801F0DCFA104B114A1D
:100EC0006F310E4801F0D6FA0F4B0E4A70210B48D5
:100ED00001F0D0FA0D4B0B4A7121084801F0CAFA13
:100EE000044B054A6821054801F0C4FA41701A70A4
:100EF000DDE7C04634590010E85B0010505900107F
:100F0000A4590010C45B0010B0590010BC59001067
:100F100070B506000D001400002914D0002A14D06A
:100F2000806873689847002806D0220029003000A6
:100F3000FFF79CFF280007E02A0021003000FFF7A0
:100F400095FF200000E0100070BD0800FCE70000E5
:100F5000F0B583B00500009201930AAB1C780BAB8F
:100F60001F78002C26D003685A7B944207D10123B6
:100F7000002B19D1002C3BD1200003B0F0BD002C78
:100F80000CD01A7B944209D81A6863001B19033BE2
:100F9000D3189B78002BEBD00123E9E73E4B3F4A67
:100FA00068213F4801F066FA3E4B3F4A67213F48BF
:100FB00001F060FA03689C7B002CDBD012D01A7B16
:100FC00094420FD862001219033A19688C466244A1
:100FD00051789973002900D1D9730023937053700D
:100FE0001370C7E72C4B2D4A68212D4801F042FAB7
:100FF000002C3AD02B681B7B9C4236D82C4BE31834
:101000001B01AA6894466344009A1A60019A5A60C8
:10101000089A9A60099ADA602E68002C2BD030D09A
:10102000337B9C422DD863001B19033B32689446E6
:10103000634400229A705A701A70717B220030004B
:10104000FFF766FF7073844200D095E7287D009A11
:10105000019B00F0FDFC061E01D0002F17D00C9B59
:10106000002B00D188E71E7086E7124B124A3C2104
:101070000E4801F0FFF9114B114AA521084801F073
:10108000F9F9054B054A6821054801F0F3F928688C
:10109000210000F015FFE2E734590010E85B001072
:1010A00050590010D4590010F45B0010D0580010B3
:1010B000FFFFFF0F105900107C5B0010CC58001090
:1010C000D85B0010F0B5DE4657464E464546E0B5C3
:1010D0008BB00990002308938200B54BD658370097
:1010E00052E0B44BB44A3F21B44801F0C3F9B44BC9
:1010F000B44A3C21B44801F0BDF9002901D10028CF
:1011000069D10021404600F0D1FEA04219D12A68E1
:101110006B6806920793AB689846EB689A4643461D
:10112000002B14D0002C18D03B681B7B9C4214D899
:10113000631EFA68D35C08931B02184338610020D1
:1011400015E0A24BA24A8E219F4801F093F9A14BD2
:101150009F4A92219C4801F08DF9994B9E4A41216A
:10116000994801F087F900239A46984600207B6849
:10117000BFF35F8F00221A6086F310884346002B6E
:1011800032D1002800D10CE100F0FAFB02000B1E66
:10119000A7DB00200021069007917868EFF3108606
:1011A00072B601680029FCD0BFF35F8F39688846AA
:1011B0004C7B002CD7D09AD0097B8C4297D887499A
:1011C00065182D01B9688C46654428686968801ADD
:1011D0009941002991DD2A686B68099800F038FC74
:1011E00000239A469846C2E7089B1B022343994670
:1011F00051461800C04705000E007A68EFF3108BC7
:1012000072B6136859424B41D9B2002BF9D1BFF3E2
:101210005F8F002E1EDB002E46DD3B69002B47D082
:101220004B456DD100F0ACFB02000B1E6EDB52197A
:101230007341002B70DB002B72DB00210491013124
:101240000391029451460191414600913800FFF705
:101250007FFE4CE03B69002BDDD04B4514D1069A54
:10126000079B521BB341002B14DB002B16DB002124
:10127000049101310391029451460191414600913C
:101280003800FFF765FE32E0554B514AA1214E4828
:1012900001F0F0F801225242524BE6E7454B464A34
:1012A0003F21464801F0E6F8002E01D1002DB4D1CF
:1012B0003B68002C50D05A7B944237D10121002941
:1012C0004AD1DA7B002A4DD19A7B002A03D1DA7BFE
:1012D000002A5AD19C73DC73002C5CD03B681B7BCA
:1012E0009C4258D8FA68013C135D01331355002322
:1012F0003B617A68BFF35F8F13608BF3108843E71D
:10130000374B334AA421304801F0B4F8294B2A4A1C
:101310003F212A4801F0AEF801225242314B8AE7C0
:10132000244B254A3F21254801F0A4F8002C0DD07C
:101330001A7B94420AD862001219033A186884464C
:1013400062449278002ABAD00121B8E7264B274A96
:101350006821274801F08EF8264B274AF6212448B9
:1013600001F088F8002A0AD0197B8A4207D8510078
:101370008A18033A19688C4662445470A4E71A4BE1
:101380001A4A68211A4801F075F81C4B1A4AFB21C9
:10139000174801F06FF80A4B0F4A41210A4801F043
:1013A00069F80BB0F0BCBB46B246A946A046F0BDFA
:1013B0008C0D0020A8540010485B0010C45400108D
:1013C000105900107C5B0010D0580010FC59001020
:1013D000605B0010145A0010A05B0010FFFFFF0FAD
:1013E000205A0010FFFFFF7F34590010E85B001007
:1013F000505900105C5A0010B45B0010805A001065
:1014000010B50C4B5B68002B04D00A210A48FFF78B
:1014100093FC10BD074C2300084A1021206800F0FF
:1014200055FC032000F0A0FA03212000FFF7A8FCE0
:10143000EBE7C046DC020020A00F0020F10D0010F9
:1014400010B5064B5B68002B01D0044810BD044B5F
:10145000044A5E21044801F00DF8C046DC02002079
:10146000945A0010885B0010D0580010F0B5DE468A
:1014700057464E464546E0B58BB0804616001F00E5
:10148000149B9A46159B994616AB1B789B461F23C7
:1014900002AA9446634400221A702BE0002809D067
:1014A00042461268127B904204D8421E4146C968E7
:1014B0008A5C41E0404B414A4121414800F0DAFF5B
:1014C00007984CE0361BAF41002F07DB002F11DAE5
:1014D0003C4B3D4A3F213D4800F0CCFF012676427F
:1014E0003B4FF3E7374B384A3F21384800F0C2FF03
:1014F000002F4FDB43465A68EFF3108472B613682F
:1015000059424B41D9B20791002BF8D1BFF35F8FFD
:101510001F3302AA94466344049300230393029367
:101520004B4601935346009332003B004046FFF781
:101530000FFD031EB2D1020041464968BFF35F8F21
:1015400000250D6084F31088002B29D01F2302A9E9
:101550008C4663441B78002BB2D112021043002B3F
:1015600020D05B46002B1DD04946D04704000D001B
:1015700003000B431DD00029A4DB00F001FA060094
:101580000F1EAFDB36196F41002FB1DA012676420C
:101590000F4FADE70B4B0C4A3F210C4800F06AFFA0
:1015A000012040420BB0F0BCBB46B246A946A04663
:1015B000F0BD0798F6E7C04610590010A05B001078
:1015C000D0580010A8540010485B0010C4540010FC
:1015D000FFFFFF7FF8B504004268EFF3108572B695
:1015E000136858424341D8B2002BF9D1BFF35F8F43
:1015F000CBB22268567BB3421BD10120002848D0D1
:10160000206988422BD0090AC9B2002B2ED020684D
:10161000007B83422AD8581EE668305C88422BD073
:1016200000206368BFF35F8F00221A6085F3108883
:10163000F8BD002B0DD0167BB3420AD85E00F61819
:10164000033E1768BC466644B678002ED6D001200B
:10165000D4E7134B134A6821134800F00BFF952180
:10166000124B134A4900134800F004FF124B134A6F
:101670004121104800F0FEFE1900100000F020FC8F
:101680000028CED132210E4B094AFF31094800F023
:10169000F1FE23698B42C4D100232361C1E7C04618
:1016A00034590010E85B001050590010B85A00106F
:1016B000305B0010D058001010590010A05B0010D3
:1016C000DC5A0010F0B587B006000F00EFF3058379
:1016D000002B1FD106246442E517A4197D418D42D9
:1016E00002D803D1844201D900240025002D14DB47
:1016F0000494059500F044F902000B1E13DBA41AB4
:101700009D41002D17DC14D03000390000F044F961
:1017100007B0F0BD234800F047FF234B234A3F2189
:10172000234800F0A7FE204B204A3F21204800F02C
:10173000A1FE002CE8D0FFF783FE00230293019363
:101740001C4B0093049A059BFFF790FE002818DAC3
:10175000DAE7002300E00023002BD5D1164B1A68EE
:10176000EFF3108172B61368002BFCD0BFF35F8FCC
:10177000114B1B68BFF35F8F00221A6081F3108842
:1017800020BF0499059A0D4B5B6A9A42E3D80B4837
:10179000806A884203D29A42DBD00123DCE701232E
:1017A000DAE7C046E05A0010A8540010485B001069
:1017B000C4540010C10D0010A00F002000400540CF
:1017C00070B504000D0000F0DBF802000B1E0ADB10
:1017D000200029008018594100290ADB00290CDB70
:1017E000FFF770FF70BD084B084A3F21084800F022
:1017F00041FE012040420749F0E7034B034A3F21E5
:10180000034800F037FEC046A8540010485B0010A3
:10181000C4540010FFFFFF7F10B5FA22920000238E
:10182000002102F083FBFFF7CBFF10BD70B584B041
:1018300005000C00EFF30583002B1ED1FFF700FE1F
:10184000002302930193224B00932A002300FFF709
:101850000DFE061E23DD20BFFFF7F2FD3100FFF76E
:10186000B9FE1C4B5B6A9C422DD81A4A926AAA4266
:101870002CD29C4225D0012026E0164B5B6A99426F
:1018800009D8144A926A824207D2994201D00120B3
:101890001AE0002018E0002016E0012014E00D4BB3
:1018A0005B6A9C4209D80B4A926AAA4207D29C42C0
:1018B00001D0012008E0002006E0002004E0012023
:1018C00002E0002000E0002004B070BD0120FBE732
:1018D000C10D00100040054070B5EFF305801038D1
:1018E000EFF3108C72B61A4B1B68002BFBD0BFF3C2
:1018F0005F8F01221300834016494B6316490B602A
:10190000164909780C00C440224214D0114A546A86
:101910008200134D5259944206D38200114C125941
:1019200099430E4B197007E00A4A031D9B00995812
:101930009950002200E00022BFF35F8F044B00218A
:1019400019608CF31088002A00D0904770BDC04603
:10195000280100D0004005403C700540BE0F00202B
:10196000A40F0020FC0C002010B50100024A03481F
:10197000FEF7A0FF10BDC0460C5C0010BC0F00209D
:10198000044B5B6A034A906A1900536A9942F9D181
:101990007047C04600400540084B5B6A01E0074BBA
:1019A0005B6A8B42FBD301E0044B5B6A8B4203D141
:1019B000024B9B6A8342F7D37047C0460040054004
:1019C00070B504000D00EFF3108672B61B4B1B6858
:1019D000002BFBD0BFF35F8F002D1CD02000FFF742
:1019E0001DF8174B83420BD019002000FFF71EF89B
:1019F00001212000FFF70AF80123A340114A1360D8
:101A0000A400114BE550BFF35F8F0C4B00221A600E
:101A100086F3108870BDA2000B4B0021D15001222B
:101A2000A2400A490B7893430B7005492000FFF749
:101A300027F800212000FEF7E9FFE4E7280100D0A5
:101A4000D918001038600540FC0C0020BE0F0020A3
:101A5000F0B5DE4600B584B00400150001921E000A
:101A60000293FFF78DFF03958E4202D84ED1854237
:101A70004CD9EFF3108B72B6274B1B68002BFBD0B1
:101A8000BFF35F8F254A17780125A540EBB23B4392
:101A90001370234B5D63221D92000199D150A20067
:101AA0002049029850501B6A2B4212D11C4B1B6CD0
:101AB0002B4208D00020BFF35F8F174B00221A6023
:101AC0008BF3108823E0184B184AC521184800F002
:101AD000D1FCFFF755FF8E4214D802D1039B8342FD
:101AE00010D80E4B1B78BB420ED00D4B1D625D63B0
:101AF0001F2004400123A3400E4A1360074B1F70B0
:101B00001E38D8E70020D6E70120D4E7012004B032
:101B100080BCBB46F0BDC046280100D0BE0F0020EF
:101B200000400540A40F0020305C0010A05C0010B5
:101B3000545C001080E200E0EFF3108C72B60B4BA7
:101B40001B68002BFBD0BFF35F8F01238340084A43
:101B5000136208490A789A430A70BFF35F8F034BF8
:101B600000221A608CF310887047C046280100D00C
:101B700000400540BE0F002010B500291ED0037B99
:101B800099421BD84B005B18033B0468A44663448E
:101B9000002919D0002A1DD0914221D0002A25D039
:101BA000047BA24222D80468500080180338201811
:101BB0008170197800291FD11A7010BD104B114A7D
:101BC0006821114800F056FC104B114A6F310E4845
:101BD00000F050FC0F4B0E4A70210B4800F04AFCFD
:101BE0000D4B0B4A7121084800F044FC044B054A98
:101BF0006821054800F03EFC41701A70DDE7C046E0
:101C000034590010B45D001050590010A459001050
:101C1000A05D0010B0590010BC59001070B506004E
:101C20000D001400002914D0002A14D080687368B5
:101C30009847002806D0220029003000FFF79CFFBB
:101C4000280007E02A0021003000FFF795FF200060
:101C500000E0100070BD0800FCE7000010B5002394
:101C6000437301338373037BC3730123027B9A4263
:101C700014D9002B0CD0027B934209D85A00D218F9
:101C8000033A01688C4662440133DBB25370EDE7DE
:101C90000B4B0C4A68210C4800F0ECFB002A09D0E1
:101CA000924207D8016853009A18033A8A18002311
:101CB000537010BD024B034A6821034800F0DAFB61
:101CC00034590010B45D00105059001010B5017364
:101CD00042608360FFF7C2FF10BD000070B50400D2
:101CE000081E00D170BD002934D0237B994231D821
:101CF0004B005B18033B2268944663445A78002AE1
:101D0000F0D02DD0237B9A422AD853009B18033B56
:101D100021688C4663445D7800215970002825D0E5
:101D2000237B984222D843001B18033B21688C4632
:101D300063440021597001002000FFF76FFF060087
:101D400029002000FFF7CAFF020031002000FFF742
:101D500065FFC7E7084B094A6821094800F08AFB7C
:101D6000054B064A6821064800F084FB024B034AF3
:101D70006821034800F07EFB34590010B45D001068
:101D80005059001070B505000C00160000292FD026
:101D900034D0037B994231D84B005B18033B026877
:101DA000944663445A78002A2ED19A78002A31D179
:101DB0001978FFF793FF0300002E0AD0EA7B002A70
:101DC0002ED1AA7B002A03D1EA7B002A3BD1AC7337
:101DD000EC73002B3DD1002C4FD02B7B9C424CD878
:101DE0002B6861000C19033C1C190023637070BD43
:101DF000254B264A3821264800F03CFB254B264A35
:101E00006821264800F036FB254B204A3A2120481D
:101E100000F030FB234B1D4A3B211D4800F02AFBFC
:101E2000002A0AD0297B8A4207D851008A18033A2F
:101E300029688C4662445470C3E7164B164A6821E1
:101E4000164800F017FB184B104A4221104800F0CA
:101E500011FB002B0BD02A7B934208D843001B18A0
:101E6000033B2A689446634400229A70B3E7094B07
:101E7000094A6821094800F0FDFA064B064A682124
:101E8000064800F0F7FAC046BC5C00108C5D0010FC
:101E9000C45C001034590010B45D0010505900109B
:101EA000085D0010305D0010805A001070B504000D
:101EB0000A00457B2900FFF765FF6073280070BDAD
:101EC00070B50400002967D0437B8B420ED00029F7
:101ED00011D0037B99420ED84B005B18033B02687C
:101EE000D0188378002B0CD1002056E00121FFF799
:101EF000DDFF012051E0294B294A6821294800F0E3
:101F0000B9FA002B20D0227B93421DD85A00D31857
:101F1000033B2268D2182568EB5C8B421AD0002B59
:101F20001BD0227B934218D85A00D318033B226857
:101F3000D21853788B4216D0002BF0D11A4B1B4A83
:101F40006B211B4800F096FA144B154A682115487E
:101F500000F090FA4378137007E0104B104A6821A4
:101F6000104800F087FA4378537000238370437061
:101F700001222000FFF706FF0200617B814205D0AD
:101F80002000FFF74BFE6073012006E0094B074A73
:101F90007121074800F06EFA002070BD345900101E
:101FA000B45D00105059001078570010745D001097
:101FB000C45C0010545D001070B504000D000620D4
:101FC00000F07EF9C000290001F01AFCC60908D013
:101FD0000E4B9E4217D87F2318400130350046082B
:101FE00000E001256562A6622C3480208001044354
:101FF00000232360062000F063F98000A9018919FD
:1020000001F0FEFB70BD0026014DEBE7FEFF000076
:10201000FFFF0000002909D00A22064B9C466044BD
:10202000434258414000044BC25270478022520044
:10203000F3E7C0460080FCBFB40F002070B5050078
:102040000C00062000F03CF9002829D0164B9D42D8
:1020500027D08022D203154B1A60154B1A60154BFE
:102060009B6811009943FAD100212800FFF7D2FFA5
:1020700021002800FFF7A0FF2C002C34E96A602221
:102080004A406E21114080225201224311600A4BC6
:102090002B6380239B01234310221A600323AB642C
:1020A00070BD80221204D6E70080034000E00040AB
:1020B00000F0004000C0004001030000F8B5DE461B
:1020C00057464E464546E0B505000F0092460A9A2F
:1020D00093424ED31A0E91461E020A9A00233000F4
:1020E000494601F0CBFB80466C006419A4002F4BDD
:1020F0009C4664446368834200D260602B1FDBB25D
:102100009B46012B3BD9C0239B0123438022120114
:102110001A60AB00264A9958002905D0506901F091
:102120006FFB01300138FDD153465A0123685A40F4
:10213000E0231A4080235B0123431A605A46012A98
:1021400028D980239B012343802212011A60434631
:102150006360424600233000494601F08FFBAD002A
:10216000134B58510120F0BCBB46B246A946A046CD
:10217000F8BD104B104A2D21104800F07BF9012FBB
:10218000C1D1C0239B01234303221A60A368DB074C
:10219000FCD5C9E72168794003220A401A60A26889
:1021A0000123BB401342FAD0CBE7C0460080004079
:1021B000140D0020C05D0010205E0010D45D0010E2
:1021C00030B583B00C2000F017F9FEF753FB002860
:1021D0000DD0002304E099002D4A2E488850013389
:1021E000092BF8D92A4B2C4A5A6203B030BD2B4B2D
:1021F00000229A6700F008F9294B01221A60274B48
:102200005B6C012BFBD1274B03221A60234B9B6B8A
:10221000012BFBD1013300930433234A01212348CE
:1022200000F054F805230093214A0121214800F0D1
:102230004DF8214B0093002202210420FFF73EFFBE
:102240001E4D00952B00002201210520FFF736FFCF
:10225000104C00942300002200210720FFF72EFFDE
:1022600000942300002200210820FFF727FF0A4BDB
:1022700000932300002200210920FFF71FFF009593
:102280002B00002200210620FFF718FFADE7C04613
:10229000140D0020006CDC021BB700000080004021
:1022A0003CB0004030B00040002F68590080024030
:1022B000008C864700C00240001BB70040597307DE
:1022C0008000014BC0587047140D0020F0B5C64681
:1022D00000B504000D00170098460C2001F090FA9C
:1022E0000600394BFA18394B9A4241D843011B1A60
:1022F0009901C91AC90009188901380001F080FA4A
:102300000200103A98235B009A4237D84346013BBB
:10231000062B39D8069B013B062B35D83F09B7421F
:1023200038D343461E04069B1A0316432368002B2A
:1023300036DB274B9C4244D080225201254B1A6049
:10234000254B1A60254B9B6811009943FAD12560F3
:10235000A060231DC02292011A4321231360236829
:10236000002BFCDAE6600823136080BCB846F0BDA1
:102370001B4B1C4A11211C4800F07CF81B4B194ACE
:102380001921194800F076F8194B164A1C211648F5
:1023900000F070F8174B134A2321134800F06AF835
:1023A00022683F231340AB42C3D1A3681B051B0D1A
:1023B0008342BED1E368EE22D2021340B342B8D1C9
:1023C000D3E780229201B9E780E84BD380F8A932A5
:1023D00000C0024000E0004000F0004000C00040AB
:1023E000305E00105C5F0010905E0010D85E001040
:1023F000F45E0010405F001080239B000343014AFD
:10240000D362704700800540064BAA2212011A6071
:102410002F22DA60044B054A1A60024B5B68002BDE
:10242000FBDA7047004002400060024000B0FA0052
:1024300000BEFDE703000A4A1268002A08D0084AD5
:102440001068C318074A9A4206D3054A13607047BA
:10245000034A05491160F2E701204042F7E7C04610
:10246000880D002000000420C00F002010B5FFF7E9
:10247000DFFF000010B582B00C001900002A0CD05C
:10248000084B002A0BD0019200932300020006485B
:1024900001F028FF0120FFF7CBFF044BF1E7034ACF
:1024A000F1E7C046685F0010785F00102454001008
:1024B00070B52B4B2B4A1A602B4B2C4A1A602C4BB5
:1024C0009A682A4B9343FAD12A4C01E008CC9847EA
:1024D000294B9C42FAD3FFF773FE234B274A1A601D
:1024E000234B9B68DB43DB01FAD1254B40229A67E3
:1024F0005A671A67DA66234C09E0234B234A862180
:102500002348FFF7B7FF2000FEF71EFC0834214BDD
:102510009C4209D22368002BF5D0012BEDD120007D
:10252000FEF71FFC0834F2E71B4CA1681B4DC022CC
:10253000280001F07FFDA560EFF30583002B00D09C
:1025400000BEFEF7D1F9FEF7E9FBFEF759FF144C88
:1025500001E008CC9847134B9C42FAD370BDC046AB
:1025600000E00040BFCDFBFE00F00040FE7F3C00DD
:1025700000C00040900B0020A00B0020FFFFFF01D7
:1025800000F00140880B0020A85F001024600010BC
:10259000C85F0010900B002000ED00E0000000205C
:1025A000A00B0020A40B00200FB400B583B0084896
:1025B00001F068FE049B002B07D005A901911800CB
:1025C00001F070FE034801F05DFE0120FFF730FFCF
:1025D00014600010A45400109A4200D2885470472E
:1025E000704710B5002802D00B684968984710BDA5
:1025F0000100002007E083001B185B00501C0860EE
:102600001078C01830380A681378303BDBB2092BD9
:10261000F1D97047F0B5DE4657464E464546E0B51F
:1026200083B093461F000C9B9A460D9C0E9B9946C7
:102630000F9B9B0703D0B8460F00060022E00192D3
:10264000A34688464E46B9460700B44207D2551CF9
:102650004B4641462020B84701342A00F5E73D00AB
:102660004F465C46019B9B46B1464646B8463700FE
:102670002E0007E0013C551C5346185D43463900C7
:10268000B0472A00002CF5D135003E0047460F9B8D
:102690009B0707D4100003B0F0BCBB46B246A94666
:1026A000A046F0BDB0464E46B9462F005D46531BCE
:1026B000B342EFD2541C4B4641462020B84722007B
:1026C000F5E7F0B5CE46474680B585B094469846C6
:1026D0000C9D0D9C0EAB1B789946109A119B129E77
:1026E000B7071CD4002B0CD0F7070AD54F46002F94
:1026F00002D10C37374204D0013B02E030272F557E
:102700000134944201D21F2CF8D9F70707D59C4217
:1027100005D21F2C03D830272F550134F5E7F706D3
:1027200015D5770505D4002C03D0944224D09C42C3
:1027300022D00F9A102A2BD00F9A102A30D00F9A3D
:10274000022A35D01F2C02D830222A5501341F2CE2
:1027500005D84A46002A31D02D222A550134039645
:1027600002930194009543466246FFF753FF05B07C
:10277000C0BCB946B046F0BD621E012C06D00F9F0A
:10278000102F01D01400D4E7023CD2E71400D0E7A8
:10279000B206D1D41F2CCFD878222A550134D1E7E4
:1027A000B206CCD51F2CCAD858222A550134C9E705
:1027B0001F2CC7D860322A550134C3E7720703D5EE
:1027C0002B222A550134CAE73207C8D520222A55C0
:1027D0000134C4E7F0B5DE4657464E464546E0B5FF
:1027E00093B081468A46089209931CAB10CB1B78A4
:1027F0009B461E9D219B9846002C03D110234246E8
:102800009A4390468023DB0046461E4042461A42C9
:1028100012D0002C22D000260EE03033D9B2771C23
:102820000AAB99552900200000F0EAFFAC4216D30C
:102830001F2F14D83E0004002900200000F0E0FF04
:10284000CBB2092BE9D94246920605D54121C918D8
:10285000C9B20A39C9B2E2E76121F8E72700434665
:102860000693209B05931F9B049303955B4602935D
:1028700001970AAB0093099B089A51464846FFF717
:1028800020FF13B0F0BCBB46B246A946A046F0BD3F
:10289000F0B5DE4657464E464546E0B595B0089041
:1028A00009910A920B931E9E1F9C20AB1B789B469E
:1028B000229B9946239D269B9A463300234303D1AE
:1028C000103352469A4392468023DB0057461F40FE
:1028D00052461A4219D0330023432DD0002714E06A
:1028E0003033DAB27B1C98460CABDA554A462B00E3
:1028F0003000210000F0C2FFA5421FD819D0434686
:102900001F2B1BD8474606000C004A462B00300000
:10291000210000F0B3FFD3B2092BE1D95246920651
:1029200005D54122D218D2B20A3AD2B2DAE76122F0
:10293000F8E7B145E3D901E00023984653460693F2
:10294000259B0593249B04934B4603935B4602937C
:10295000434601930CAB00930B9B0A9A0999089884
:10296000FFF7AFFE15B0F0BCBB46B246A946A04685
:10297000F0BD0000F0B5DE4657464E464546E0B590
:1029800091B083468A460C9298461A9C08941B9DE7
:10299000099522002B002000290001F0EAF9002807
:1029A00000D0E5E001225242D74B2000290001F07F
:1029B000DBF9002800D0DBE001225242D34B20009B
:1029C000290001F0BBF9002800D0D1E0002200234B
:1029D000089E3000099D290001F0B0F9002800D0C0
:1029E000DDE008980999069007918023DB001E9A84
:1029F0001A400D921E9A1A4201D106231C93069882
:102A0000079904000D000A000600024300D1D1E03E
:102A1000080D4005400DBE4CA44660440A03120B4D
:102A2000BC4B13431F0001F0B7F9BB4ABB4B01F08D
:102A300046F9BB4ABB4B01F023F904000D0000220C
:102A4000B94B3000390001F016F9B84AB84B01F023
:102A500036F902000B002000290001F011F901F005
:102A6000B3F9814601F098F904000D00B14AB24B68
:102A700001F025F90022B14B01F002F901F0A4F9AF
:102A80000600AF4AAF4B2000290001F018F90400FE
:102A90000D00300001F080F9AB4AAC4B01F00FF9AA
:102AA00002000B002000290001F0E5F804000D00F1
:102AB00002000B0001F003F90A900B91A44BF318EC
:102AC00000261F0522002B002000290001F0D8F865
:102AD0000E900F9122002B0000208021C90501F0EB
:102AE000CAF804000D0000229A4B0A980B9901F0D5
:102AF000CCF80022984B01F0C3F802000B000A98B2
:102B00000B9901F0C2F80022944B01F0B9F80200D1
:102B10000B000A980B9901F0B8F802000B00200096
:102B2000290001F0ADF802000B000E980F9901F09A
:102B3000ACF80022774B01F0A3F832003B0001F023
:102B4000BEF806000F0004000D00069A079B01F076
:102B50000BF9002830D001235B429C46E14400225F
:102B60007D4B3000390001F090F804000D0023E0A7
:102B70001E9B04931D9B03931C9B0293089A099B25
:102B80000092019343460C9A5146584600F0FCF8D7
:102B900011B0F0BCBB46B246A946A046F0BD00232A
:102BA000002406930794069680231B069C466544E2
:102BB00007951AE7002399464B466333C62B1ED868
:102BC00004261E9B1B0526D52B0023430FD0644AE9
:102BD000644B0698079901F0BFF8002879D00022CD
:102BE000614B0698079901F0A9F8002871D01C9B49
:102BF0004B4506DD4A46981A431E1C9303E0052602
:102C0000DFE700231C938023DB001E9A1A431E92E9
:102C10000026002399461D9B9E4264D29F1B0223DF
:102C20001E9A1A400A921E9A134202D0002E00D019
:102C300000274B46002B07D022002B00069807994F
:102C400001F023F8069007910022002308980999C3
:102C500001F074F8002848D1444B1E9A13400493A5
:102C600003971C9B0293069B079C00930194434689
:102C70000C9A5146584600F087F8002E00D187E79D
:102C80001E9B9B063DD54525441C434602005146EC
:102C90002800D8474B46DA179B1853400522059267
:102CA000013E0496002203920A3202924A46D00F55
:102CB000019000934346220051465846FFF78AFD93
:102CC0000A9B002B00D163E702005F460C9E1D9D0E
:102CD00054E01C9B002B9ED00D9B002B9BD01C9B7B
:102CE000013B1C9397E7002799E7069C079D22006C
:102CF000290080200006844661440B000692079359
:102D0000AAE76525C0E7C046FFFFEF7FFFFFEFFFA3
:102D100001FCFFFF0000F03FFB799F501344D33FBD
:102D2000B3C8608B288AC63F0000F83F61436F63D9
:102D3000A787D23F71A379094F930A400000E03F73
:102D40001655B5BBB16B0240EF39FAFE422EE63F95
:102D5000FF03000000002C40000024400000184049
:102D60002D431CEBE2361A3F80842E41FFF7FFFF14
:102D7000541C434651462020B8472200931BAB42C7
:102D8000F6D3100004E7C046F0B5DE4657464E467F
:102D90004546E0B595B00690079193469946209F29
:102DA0001E9A1F9B1000190000F0E3FF002831D18C
:102DB00001225242BF4B1E981F9900F0BFFF00280E
:102DC00037D101225242BC4B1E981F9900F0CCFF14
:102DD00000283DD10022B94B1E981F9900F0C4FF76
:102DE000002850D10022B64B1E981F9900F0A6FF74
:102DF000002848D1002200231E981F9900F09EFF52
:102E0000002850D100239846229B5B0500D4B6E0F1
:102E1000002458E0229B0393219B029303230193F8
:102E2000A84B00934B465A4607990698FFF7F2FBCA
:102E30000EE1229B0393219B029304230193A24B57
:102E400000934B465A4607990698FFF7E3FBFFE0CD
:102E50000423229A1A4022990B4210D09B4B002A3D
:102E60000FD004222299039121990291019200939B
:102E70004B465A4607990698FFF7CCFBE8E0944B7F
:102E8000EDE70322EEE7229B0493219B0393029735
:102E90001E9B1F9C009301944B465A460799069827
:102EA000FFF768FDD4E01E9A1F9B0020002100F070
:102EB000E2FE1E901F9101239846A5E70CAB30223D
:102EC0001A55013F01341F2C01D8092FF6D81E983E
:102ED0001F9900F079FF050000F05EFF02000B0073
:102EE0001E981F9900F0C7FEFA007A4B9B181A68CB
:102EF0005B680A920B9300F0E2FE0890099100F0E3
:102F000087FF060000F044FF02000B0008980999B3
:102F100000F0B1FE0890099100226F4B00F024FFF1
:102F200000282ED00136300000F032FF02000B00E6
:102F30000A980B9900F008FF002801D001350026FF
:102F4000002F2CD1280000F027FF02000B001E9854
:102F50001F9900F090FE06000F0000225E4B00F06B
:102F6000EDFE002846D100225B4B3000390000F016
:102F7000FBFE00283ED1EB073CD501353AE00627A1
:102F800046E70022544B0898099900F0D7FE002824
:102F9000D6D1002E01D0F307D2D50136D0E7AA460C
:102FA0001F2C11D8013F0A21300000F029FC651CBC
:102FB00030310CAB19550A21300000F021FC092EEC
:102FC0000ED906002C00EBE755461F2C0CD87B1EB3
:102FD000002F09D00CAA302111551F000134F4E74D
:102FE0002B0055461C00F0E71F2C03D80CAB2E22FB
:102FF0001A5501341F2C10D80A21280000F0D8FBE4
:10300000661C30310CAB19550A21280000F0D0FBAA
:10301000051E01D03400EDE734000323229A13404B
:10302000012B1CD01F2C06D84346002B32D00CABF2
:103030002D221A550134229B0393219B0293019464
:103040000CAB00934B465A4607990698FFF7E2FAF5
:1030500015B0F0BCBB46B246A946A046F0BD219BC8
:10306000002B13D04346002B02D10C3313420FD058
:10307000219B013B2193190003E00CAB30221A5530
:1030800001348C42CED21F2CF7D9CBE72199F8E737
:103090002199F6E7229B5B0704D50CAB2B221A552E
:1030A0000134C8E7229B1B07C5D50CAB20221A555B
:1030B0000134C0E7FFFFEFFFFFFFEF7F65CDCD419C
:1030C00065CDCDC140600010446000103860001034
:1030D00034600010306200100000E03FF0B5DE46C2
:1030E00057464E464546E0B593B082468B469046DD
:1030F0001193002900D1EBE200275546119B187867
:10310000002800D1E7E2252809D07C1C43463A007C
:103110005946A847119B013311932700EEE701336D
:1031200011930024119A11780B00203BD8B210287B
:1031300003D88300D048C3589F460B00303BDBB216
:10314000092B2CD92A292FD000230A93119B1A78F6
:103150002E2A39D000239A46119A1378683BD9B2A7
:10316000122976D88B00C549CB589F4601231C43B2
:1031700001321192D6E702231C4301321192D1E7AA
:1031800004231C4301321192CCE708231C43013273
:103190001192C7E710231C4301321192C2E711A814
:1031A000FFF726FA0A90D1E71C9B1A1D1C9218689B
:1031B000002804DB0A90119B01331193C6E7022318
:1031C0001C4343420A93F6E78022D20014435A1C60
:1031D00011925A781300303BDBB2092B04D92A2A0A
:1031E00007D000239A46B7E711A8FFF701FA8246F5
:1031F000B2E71C9B1A1D1C921868002804DB82464B
:10320000119B01331193A7E70020F8E780235B00AF
:103210002343511C119152786C2A01D01C0018E0F4
:10322000C0239B001C430131119112E080232343F2
:10323000511C11915278682A01D01C0009E0C0236A
:103240001C430131119104E080235B001C430132D7
:103250001192119B18780300253BDAB2532A00D94A
:103260002CE29300864AD3589F4680239B001C4340
:1032700001321192EDE780235B001C430132119271
:10328000E7E7782809D0582838D06F2838D0622846
:1032900038D010239C430A2600E01026582833D04B
:1032A000692803D0642801D00C229443630501D51A
:1032B0000122944369282AD0642828D0A30500D588
:1032C0009FE0E30500D5B8E0630600D4CAE01C9A8D
:1032D000111D1C911168FF220A4005940A9B04935A
:1032E00053460393029600230193009243463A000B
:1032F00059462800FFF76EFA070027E01026CDE7B1
:103300000826CBE70226C9E720221443C8E7A30515
:1033100020D4E30550D4630666D51C9A111D1C9178
:103320001168FF220A40D317D118594005940A9B0F
:103330000493534603930296D20F019200914346A1
:103340003A0059462800FFF745FA0700119B013360
:103350001193D3E61C9BDA1D07218A431100083123
:103360001C91116853689C46DB170C930D930C9AC3
:103370000D9B100048400E90624653400F930E98EC
:103380000F990C9A0D9B801A99410E900F910894F9
:103390000A9B0793534606930496002305936346BE
:1033A000DA0F02920090019143463A0059462800F4
:1033B000FFF76EFA0700C9E71C9A111D1C911268ED
:1033C000D317D118594005940A9B0493534603938D
:1033D0000296D20F0192009143463A0059462800C6
:1033E000FFF7F8F90700B1E7230605D51C9A111D70
:1033F0001C910023D25E96E71C9A111D1C91126845
:1034000091E71C9BDA1D07218A43110008311C91AA
:1034100008940A9B0793534606930496002305934A
:103420000293136854680093019443463A00594646
:103430002800FFF72DFA070088E71C9A111D1C9140
:1034400005940A9B04935346039302960023019329
:103450001368009343463A0059462800FFF7BAF92B
:10346000070073E723060DD51C9A111D1C911268E5
:103470001204120C31E7C0464C600010906000103E
:10348000DC6000101C9A111D1C91126825E746286B
:103490001AD01C9B0733072293431A0008321C9250
:1034A00004940A9A0392524602925C681B68009345
:1034B000019443463A0059462800FFF765FC07008F
:1034C000119B0133119319E620231C43E1E7672880
:1034D00001D0472802D180231B011C43452801D07D
:1034E000472801D120231C431C9B07330722934309
:1034F0001A0008321C9204940A9A039252460292CD
:103500005C681B680093019443463A0059462800C2
:10351000FFF730FA0700119B01331193EEE5022308
:103520001A002240924623421FD001241C9B1A1DE0
:103530001C927A1C9146187843463A005946A8478F
:103540005346002B16D1119B013311934F46D5E5FD
:10355000561C434659462020B847230032005C1CC5
:103560009D42F5D83D001700E0E701233A002F0007
:103570000A9DF4E74A46A9460A9D06E0571C4346C1
:1035800059462020C84734003A00661CA542F5D8A9
:103590004D469146D7E71C9B1A1D1C921B68994605
:1035A0005346002B00D1013B4E4601E0013613008B
:1035B0003278002A02D05A1E002BF7D14B46F21A5D
:1035C00010928023DB0026001E401C4203D052458F
:1035D00001D95346109302231A0022400B92234232
:1035E00005D03A0037004C46A946554620E03A003F
:1035F000109B5F46B3462E0006E0551C434639003B
:103600002020B04723002A005C1C0A999942F4D874
:1036100035005E46BB46109437004C46A9465546D9
:1036200006E01D000134561C43465946C847320087
:103630002078002804D0002FF4D06B1E002DF0D18C
:1036400017004D460B9B002B03D1119B01331193A7
:1036500054E50A9F109B06E0561C4346594620201D
:10366000A847230032005C1C9F42F5D81700ECE706
:1036700021231C431C9B1A1D1C921B68009305945C
:1036800008230493534603931023029300230193CA
:1036900043463A0059462800FFF79CF80700119B63
:1036A000013311932AE57C1C43463A0059462520F4
:1036B000A847119B0133119327001FE57C1C43464B
:1036C0003A005946A847119B01331193270015E58D
:1036D0000A4B9A4610E5AA46474502D343465A1E6E
:1036E00000E03A00434659460020D047380013B066
:1036F000F0BCBB46B246A946A046F0BDE12500108D
:103700000CB410B584B00A0006AC08CC0394009445
:1037100001000448FFF7E2FC04B010BC08BC02B092
:103720001847C046D925001000B585B00290039116
:103730000121009313004A4202A90248FFF7CEFC80
:1037400005B000BDE325001001480421014B1847D6
:10375000100300207937001010B5010018231B88D2
:1037600014221088984710BD10B5010018231B883B
:1037700016221088984710BDF0B5C64600B5070060
:103780000E0000250123984600E00135B5420AD21B
:10379000AC003C192068FFF7DFFF20600028F4D15F
:1037A00000239846F1E7404680BCB846F0BD0000D3
:1037B000124A936F9B0815D29066D166002905D0F6
:1037C000FFE7FFE7FFE7516F106F704704B58021F7
:1037D0000906C2175140002800D0C84301F0ECFD93
:1037E000002104BDF0B5146E556E576F166FFFF7CC
:1037F000E3FF1466556657671667F0BD000000D0FA
:10380000114A936F9B0813D210665166002905D0A8
:10381000FFE7FFE7FFE7516F106F704704B500281F
:1038200001D00020C04301F0C7FD002104BDC04607
:10383000F0B5146E556E576F166FFFF7E5FF1466FF
:10384000556657671667F0BD000000D094464A4A97
:10385000926F9208624601D228E0C046F0B5464E0B
:10386000346E756E776F366F00F020F89446424ADA
:1038700014665566576716676246F0BD94463E4A21
:10388000926F9208624601D254E0C046F0B53A4EBB
:10389000346E756E776F366F00F04CF89446364A8A
:1038A00014665566576716676246F0BD002B24DB29
:1038B00011D000293EDA00B5C943404200D10131A0
:1038C00000F038F8C943404200D10131DB43524295
:1038D00000D1013300BD002AEBD1002801D100291D
:1038E00005D00020C90FC90701D1C043410800B568
:1038F00001F05AFD0022002300BD00B500290ADBBB
:10390000DB43524200D1013300F014F8C943404276
:1039100000D1013100BDC943404200D10131DB4338
:10392000524200D1013300F005F8DB43524200D18E
:10393000013300BD002923D1002B18D1002A0CD05F
:10394000BC460D4F38667A6600210023FFE7FFE78B
:10395000FFE77A6F386F67467047002801D0074845
:10396000010000B501F020FD0022002300BD02008F
:103970000B00002000217047000000D0FFFFFFFF78
:10398000002B00D0BFE0130C28D1002AE7D080B470
:10399000114F39667A66FFE7FFE730B4040C7B6F9E
:1039A000396F1B0423433B667A66FFE7FFE7FFE7B7
:1039B000C04684B27B6F3D6F1B0423433B667A662F
:1039C000FFE7FFE7C04600232C042D0C7A6F386F09
:1039D00000196941B0BC7047000000D0F0B59446B2
:1039E0000025140E01D112020835140F01D1120165
:1039F0000435940F01D192000235D40F01D1520049
:103A00000135D40B0134254F7C66254C3C660E0CE9
:103A100093B2FFE7FFE7FFE73C6F6643360C77039F
:103A2000BE467343DF0B5B04C01AB941130C7343EA
:103A3000DB18C91ACE086643360CB64493B27343FA
:103A40001F0F1B01C01AB941130C73431F0B1B0539
:103A5000C01AB941860D8F023E436643360C092DCC
:103A600024DB520A7243801A7703460A6643360CF7
:103A700016235B1BDE40DF40BF1964466643821B92
:103A80007046043506330100D940A840C01900D360
:103A90000131A24206D20023F0BD0000000000D098
:103AA000FFFFFFFF121B0130F3D3F1E709277F1B54
:103AB000FE406446A2B27243801A00D20139220C41
:103AC0007243130C1204821A99410B00704604359C
:103AD00013370100F940A840801900D30131002BB1
:103AE00002D1A2420AD2F0BD013000D30131121B33
:103AF000FAD2013BF8D1A24200D2F0BD013000D38E
:103B00000131121BF7E7F0B51C0C00D080E00CB4BB
:103B100000251C0A04D11B02160E3343120208357D
:103B20001C0B04D11B01160F3343120104359C0BEF
:103B300004D19B00960F334392000235DC0B02D177
:103B400092185B4101351C00971864410134464FBF
:103B50007C66464C3C660E0CFFE7FFE7FFE7C0467D
:103B60003C6F6643360C7703BE4697B27743C01B63
:103B700000D20139C01B00D201399FB27743C91B63
:103B8000C91B170C77437E04FF0B801BB941CE087D
:103B90006643360C0C2D33DBB644120B1F053A433B
:103BA0001B0B97B27743C01B00D201399FB27743FA
:103BB000C91B170C77433E043F0C801BB941860D8F
:103BC0008F023E43664329277F1BFE400C3D77460C
:103BD000AF40BF1930BCA2B2ABB272437343801A7C
:103BE0009941220C7243130C1204801A994102006D
:103BF0000B000137001BA941F9D2781E0021F0BD4E
:103C00000C277F1BFE4077467F0BAF40FF19E0E794
:103C100000245D1C07D0144F7D663966FFE7FFE77F
:103C2000FFE7FFE73C6F95B29EB265436643401BDA
:103C3000B141150C1E0C6543664336042F0C3E4300
:103C40002D04401BB141994204D202000B00200018
:103C50000021F0BD01D19042F7D3801A994101347F
:103C60009942F2D3F6E70000000000D0FFFFFFFF0B
:103C700048404140484018B4134B5B68019308BD6D
:103C800018B4114B1B68019308BD94460F4A926FFC
:103C9000920805D2624618B40B4BDB68019308BD4D
:103CA0000A4AF0B5146E556E576F166F6246FFF7ED
:103CB000F2FF064A1466556657671667F0BD18B4DA
:103CC000014B9B68019308BD9C0D0020000000D0B3
:103CD000FFB550404240504059404B40594000E0F1
:103CE000FFB5154F4C00640D03D0BC4204D10C034A
:103CF00014D80020090D09055C00640D03D0BC42F6
:103D000004D11C030AD800221B0D1B0501264B40C1
:103D100009D44B4003D58B4200D18242FFBD99426A
:103D2000FCD19042FFBD0B43DB1803431343F5D096
:103D3000C9434918FFBD0000FF07000000B5FFF7A9
:103D4000CFFF804100BDC04600B5FFF7C9FF01D9D4
:103D5000002000BD012000BD00B5FFF7B9FF01D96B
:103D6000002000BD012000BD00B5FFF7B1FF80417C
:103D700000BD012040054A00121804D85A0012184C
:103D800001D80020704701207047002070470000D4
:103D90000021002805D17047C1174840401AFAD0C9
:103DA000C90713B5064B1B6898470CBC441CA240BE
:103DB0001005120B0349091B09051943114310BDD6
:103DC0009C0E00201F04000010B54C00620D8023E3
:103DD000D218DB00D21A5B057E2A10DD9E3A13DA78
:103DE000CC170903490819435242D14064000134F9
:103DF0001532202A05DAD0400843604310BD002068
:103E000010BD0846604310BDC80FC018013810BD72
:103E100018B4024B5B6A019308BD00009C0D0020A2
:103E200010B50148FEF7C0FB8062001070B5132387
:103E30001C78012C14D0012C14DC022C02DC1F4A4B
:103E40001F4B9A641F48FFF787FC1F4B186070BD1B
:103E500099001E481A4A885001331F2BF8D9EAE707
:103E60000023FAE71A48FFF77FFC05001948FFF71F
:103E70007BFC023803789B007F2B19DD8022290010
:103E80000F4800F0D7F8022CD7D1134B1A88B5236E
:103E90001B029A4209D1114B1A88114B9A4204D144
:103EA000104B1A88104B9A42C7D00020FEF77CFBBB
:103EB0000E4B0F4A32210F48FEF7DCFAF93E001094
:103EC0009C0D00204C3300009C0E0020213E001071
:103ED000534400005346000054380000D838000016
:103EE000494600009C3800005946000098620010C6
:103EF0004C630010F862001007B56046002800D13E
:103F000000BE01880A0A0230DF2AFAD1C9B282084B
:103F100004D3028840880004104300E00068024A8D
:103F20005050039007BD00009C0D002051434343B7
:103F3000C9188C46110C83B24B4310B4040C614376
:103F400092B280B2504362431C041B0C001910BC97
:103F500059411304120CC0185141614470470000CC
:103F600010B50148FEF720FB2454001070B5132350
:103F70001E781848FFF7F8FB0500012E11D0012E1E
:103F800009DDAB1E1B789B007F2B1DDD80222900E5
:103F9000114800F04FF81148FFF7DEFB104B186096
:103FA00070BD542201000C4800F044F8002300E0EA
:103FB00001331F2BE3D89A00074C1259002AF7D17E
:103FC0009A0008481051F3E7074B084A4221084875
:103FD000FEF750FA53460000A00E00204C330000BC
:103FE0009C0E0020613F001060630010E46300102D
:103FF0009463001010B50C0000F090FA002804D073
:104000000419034B9C4200D810BD0248FEF7CCFABD
:1040100000000420F863001001480421014B1847F8
:104020002003002079370010014B1B68184700005F
:1040300020030020014B5B6818470000200300208C
:1040400010B50300080011001B68984710BD000060
:10405000F8B507000D001600437D002B02D00024A8
:1040600000200CE003681100280098472DE03B7DFC
:1040700010E0022115483B689847601C0134B442A7
:1040800014DA002CF3DD2B19013B1B780D3B5A424F
:104090005341DBB22A5D0A2AF0D1002BEED1A042B7
:1040A000E7DA211A28183B689847E2E7B04203DABA
:1040B000311A28183B689847002E06DDAD19013DDE
:1040C0002B780D3B5A4253413B75F8BD806400107C
:1040D00070B505000368002B16D00C4B1C6805E07A
:1040E000290004C92000FFF7B3FF2469002C09D080
:1040F0002368002BF9D0064B1B68002BF0D0A3429D
:10410000F3D1EDE700232B6070BDC0467C0D00208D
:10411000840D002070B505000C000B68802B05D0C5
:1041200021684B1C23606418257170BD0800FFF7DF
:10413000CFFFF5E710B5FDF723FC02000B1E0BDBEC
:104140000D48002112184B41002B0BDB002B0DDB1F
:104150000A4801F039F910BD094B0A4A3F210A48C3
:10416000FEF788F901225242084BEFE7044B054A5B
:104170003F210548FEF77EF940420F00880B0020E2
:10418000A854001068640010C4540010FFFFFF7FA3
:1041900010B5024801F000F910BDC046880B0020A0
:1041A000F0B5CE46474680B583B006000D00904678
:1041B0001C00FFF7BFFF81466B1C05D0002C08D008
:1041C000194F1A4B1C6807E0300000F0EBFC0500AB
:1041D000F4E7174FF5E72469002C17D02368002B6C
:1041E000F9D0144B1B68002B01D0A342F3D12A0055
:1041F00031002000B8474346002BECD06B46D91D58
:104200000A230B7001222000B847E4E74B46002B3D
:1042100007D16B1E9D41E8B203B0C0BCB946B046A1
:10422000F0BDFFF7B5FFF4E7414000107C0D002022
:1042300051400010840D0020094A01E010331A009B
:104240001368002B08D08342F8D1002907D10369F5
:1042500013600023036102E0002900D01060704762
:104260007C0D002010B5064B1C6801E098472469BE
:10427000002C03D06368002BF8D1F8E710BDC046CE
:104280007C0D002070B5050000F08CFC04000023BC
:10429000012201002800FFF783FFFFF7E3FF200062
:1042A00070BD000070B5A2B004000E00FFF742FF21
:1042B0000500002301933300220001A90848FFF7FD
:1042C00033FA040001A8FFF703FFFFF7CBFF002D2F
:1042D00002D1200022B070BDFFF75AFFF9E7C046B7
:1042E000154100100FB400B583B004A901C90191B4
:1042F000FFF7D8FF03B008BC04B0184710B500F0B2
:10430000F9F8012010BD0000F0B583B005000E00E3
:1043100000240FE06B46D91D0D230B7000200028F0
:1043200016D193699B06FCD40B78136001300131E0
:10433000F5E70134B44219DA0D4B1A682F5D0D4BC5
:10434000D31859424B415B000B495B5EBB42E1D045
:104350006B46D91D0F7000200028EAD193699B0697
:10436000FCD40B78136001300131F5E703B0F0BDE8
:10437000B80F00200080FCBFB40F0020F0B583B060
:1043800006000F00002504E06B4607331B782B70F6
:104390002500BD4215DA174B1A68936910242100D5
:1043A00019401C420DD16C1C75196B46D81D002993
:1043B000EAD19369DB06FCD4136803700131013044
:1043C000F5E70D4B1B68002B0CD00A4B1A685023E5
:1043D000936311003431536B38221A4080235B0100
:1043E0000B431A60002D02D0280003B0F0BD033D3E
:1043F000FAE7C046B80F00200C0D002010B5064BA0
:104400001B68002B06D0054A126800219163044AFC
:104410001068984710BDC0460C0D0020B80F002052
:10442000100D002070B504000E001C4B1B681C4AC8
:1044300098184242504114300500002C03D0194A0C
:104440001268002A06D0002C19D0164B1C60164B9F
:104450001E6070BD1549FCF7E9FA01212800FCF740
:10446000D5FA0E4B1A685023936311003431536B05
:1044700038221A4080235B010B431A60E5E7094AA2
:104480001268002AE1D000229A6300212800FCF77C
:10449000BDFA06492800FCF7F3FAD6E7B80F00206A
:1044A0000080FCBF0C0D0020100D0020FD4300100B
:1044B00070B50D001C000D4B1860002A0BDA002CA3
:1044C0000EDA0A4B18682900FDF7B8FD01210848EB
:1044D000FFF7B2FE70BD02211000FCF7B3F9EEE762
:1044E00002212000FCF7AEF9EBE7C046B80F002030
:1044F0003003002010B5064B1B78064B1B78E121DA
:104500000123002249020448FFF7D2FF10BDC04634
:10451000E0640010E464001000400340030010B5A4
:104520000A0003490868190000F004F810BDC046ED
:104530004803002070B50B0C0024150C002B28D16B
:10454000002D37D18BB291B2594300F047F8051EC8
:1045500019D00300083B5A6803239A43043A242ADB
:1045600013D80300132A0AD90460446008331B2AB5
:1045700005D98460C460242A25D0030010330022AA
:104580001A605A609A60280070BD0021FFF74CFD48
:10459000F9E7002D11D1151C89B292B24A43ADB290
:1045A0009BB26B43110C5B18190C06D1190492B223
:1045B0001143CAE72B1C0D1CEEE700F009F80C2391
:1045C00000250360DFE70300046118334461D6E788
:1045D000014B18687047C04648030020F0B54E46AE
:1045E0004546DE465746E0B50D000B35060083B064
:1045F000162D22D8102900D9B2E000F0B1FA10250A
:1046000018230220CC4FFB181A005C68083A944229
:1046100000D1B5E0032362689A431300E268A16801
:10462000CA6091600122E318596830000A435A6059
:1046300000F09EFA2000083095E007239D4300D546
:104640008EE0A94200D98BE000F08AFAFC235B00DF
:104650009D4200D2A7E1680A00D18BE0042800D96E
:104660007AE138239846A80980443930C100B24F16
:1046700079184C680839A1420ED003239C4604E007
:10468000002ACBDAE468A14206D06246636893430D
:104690005A1B0F2AF4DD40463A003C690832944226
:1046A00000D178E003236168994389460B00491BD8
:1046B0000F2900DD7BE17A613A610029B2DA8022BC
:1046C0009200914500D30FE15909DA0801238B408C
:1046D000D2007968D2190B4391687B60E260A160D7
:1046E0009460CC60012182109140994259D80B42CC
:1046F00005D103229043490004300B42FBD0032331
:104700009846C3009946B944CC4682466346DC6865
:10471000A44507D12CE1002A00DB35E1E468A4457B
:1047200000D125E14246636893435A1B0F2AF2DD0C
:1047300001208046611905436560A068E568083777
:10474000C560A86040461043F960B9604860CF601A
:1047500030008F60E25000F00BFA2000083002E0D9
:104760000C230020336003B0F0BCBB46B246A94620
:10477000A046F0BD80213F2340209846890076E77F
:10478000DC680230A34200D044E73A003C690832BA
:10479000944200D086E701217B68821091409942C3
:1047A000A5D90323BC6862689A439146954203D811
:1047B000531B0F2B00DD89E023004B445F4A01931C
:1047C0005F4B93461B681268EB18013200D13DE144
:1047D0005C4A944663441B0B1B0300933000009912
:1047E00000F0CEF903008046013300D1FAE0019BCE
:1047F000834200D9F4E0544B00981A009A4612689C
:1048000003009446514663440B6001991A004145E8
:1048100000D151E15B461B68013300D156E14346AC
:1048200001995B1A9A1853461A600723424641467B
:104830001A400192194200D112E108239846881AC1
:10484000424B0099804441449B1A5B1A1B051B0D87
:104850000091300019009B4600F092F9431C00D1F2
:1048600050E14346C01A03005B440093534652464E
:104870001B6801215B44136042464046BA60009ABF
:104880000A434260BC4200D124E14A460F2A00D8C4
:1048900022E107200C3A8243606801400520114361
:1048A0006160A118486088600F2A00D935E142464E
:1048B0004446526826490868984200D20B60254950
:1048C0000868984200D38FE00B608DE00122290038
:1048D00013431143651961603000BD606B6000F0E7
:1048E00047F9200008303EE75A0A042A72D9142AF0
:1048F00000D9C5E011005C325B31D20008235B4275
:104900009C46BA18944463469A6803239846944593
:1049100000D19EE0434651689943494502D99268C7
:104920009445F7D1D3689C467B686146A260E160FC
:104930008C60D460D6E6C04678070020800B00204B
:10494000F80C00200F100000C80C00200810000018
:10495000F00C0020F40C0020142852D9542800D95F
:1049600096E06E239846280B80446F30C1007EE6A7
:1049700008239B46073BDC449B46DA4443465246A9
:10498000134200D0C2E64CE00122E318596830001F
:104990000A435A60E368A268D3609A6000F0E8F8BE
:1049A00020000830DFE62B00E80808332AE6012360
:1049B00060191D43656078613861C26082601A00C9
:1049C0004B460A4342603000E15000F0D1F820002D
:1049D0000830C8E69A09110039323831D2008DE723
:1049E000BC4260D0BC68626803239A43531B954263
:1049F00002D80F2B00DD69E7300000F0B9F8002085
:104A0000B1E65B23984680445C30C1002FE6082362
:104A10005B429C46E1444B469B6801384B4500D0C5
:104A200098E043460342F2D17B688B437B604900A8
:104A3000994200D9B5E6002904D1B2E60422944691
:104A40004900E2440B42F9D050465AE61033009335
:104A5000C4E68910023B8B4079680B437B6064E7B6
:104A6000009B300043445B421B051B0D19009B4615
:104A700000F086F8431C00D0F3E600239B46F5E6E1
:104A8000542A2BD81A0B11006F326E31D20035E741
:104A9000AA235B0098422BD8DD3B9846E80B804464
:104AA0007830C100E3E52C4B009A9A461B689C467F
:104AB000534662441A60ADE6090500D0AAE602003A
:104AC000BC684A4401310A436260F3E65B464246F1
:104AD0001A60AAE64446EDE641608DE7AA21490046
:104AE0008A4224D8DA0B110078327731D20005E7F8
:104AF0001A4B984224D87C239846A80C80447D30D9
:104B0000C100B4E5009A019B94464246083B6344C9
:104B10009B1A009300239B46A8E621003000083131
:104B200000F0BAFA5346BC681B686268C2E60B49DB
:104B30008A420BD89A0C11007D327C31D200DDE61E
:104B4000FE217E237F209846890090E5FE227E216B
:104B50009200D3E67B686AE7C80C00205405000089
:104B600010B5024800F07AFB10BDC046C40C00200E
:104B700010B5024800F074FB10BDC046C40C002004
:104B8000002370B5064D040008002B60FDF752FCB1
:104B9000431C00D070BD2B68002BFBD02360F9E7CD
:104BA000800D002010B583070AD00300032102E026
:104BB00001330B4205D01A78002AF9D1181A10BD1A
:104BC000030019680C4A0D4C8A188A4322420FD1FF
:104BD0005968094A04338A188A43224208D159681D
:104BE000054A04338A188A432242F1D000E0013397
:104BF0001A78002AFBD1E1E7FFFEFEFE808080806C
:104C0000F0B5DE464E4645465746E0B59C4C8346D9
:104C1000A544884614001E00012B00D82AE101207B
:104C20000125B44600210122012306006D4205E062
:104C3000190001225E1B8B189C450DD96019E75C99
:104C4000805C8742F4D300D188E001220D0001315D
:104C50008B1801269C45F1D80123009666469C4698
:104C6000023B994648460021A9460122050002332D
:104C700006E05A1B9446190001228B189E420DD95A
:104C8000A018E75C405D8742F3D86CD00123012275
:104C90000D0001319C468B189E42F1D82B004D46E9
:104CA00001336A1C92469A4202D862469A460092A2
:104CB000FFAA02AB0C3240C39A42FCD101256D42DF
:104CC000002E0DD02300A446751E371960191A78DE
:104CD000C11A920002AC0133A1509F42F7D1644641
:104CE000009B52462000E11800F0BCFA002869D170
:104CF00000235246994601339B1A01933300002743
:104D00004E4699465B46D819435D02AA9B00D3588C
:104D1000002B2CD0002E04D0009A934201D24B4697
:104D20009B1A0026FF1843464A469B1ABB42E9D20B
:104D30008021584609011143404400F017FB80448C
:104D400043464A469B1ABB42DCD200204D4B9D4451
:104D5000F0BCBB46B246A946A046F0BD964200D183
:104D600085E0013267E762457ED0013285E7534630
:104D7000B24506D2330004E0E15CC25C91421BD133
:104D80000133AB42F8D35346D446013BB24504D875
:104D900009E05A1EB34213D013005A1C9446E15C3A
:104DA000C25C9142F5D001366645CFD8009B4A4699
:104DB0009C46D61A6744B6E7019A94466744B0E722
:104DC000B446F0E75346F31A53454BD301335246EA
:104DD000019301239B1A009380231B019946330002
:104DE0000027464698465B46D819435D02AA9B00B9
:104DF000D358002B18D0DF194346F31A9F42F2D93B
:104E00005B46494698194346194300F0AFFA4346BA
:104E10003618F31A9F4298D85B46D819435D02AA08
:104E20009B00D358002BE6D15346AA4503D30AE092
:104E30000133AB4207D2E15CC25C9142F8D0009AE8
:104E400094466744D7E75346013B03D27EE7013BD4
:104E500000D27BE7E15CC25C9142F8D0019B9C46AA
:104E60006744C9E75346B1E78918012205E70122E3
:104E70008919E0E60123009300239A4618E7C0460B
:104E8000F4FBFFFF0C040000F0B5CE46474680B5AA
:104E90000E0009780500040091B0002950D0707808
:104EA000002800D189E0B778002F4FD0F378002B8D
:104EB00000D189E03279002A58D03000FFF772FE25
:104EC0008021890007000143280000F04FFA874243
:104ED00063D8FE2F00D989E0C01B80464022684677
:104EE000791CA844FFF7A0F8002F0FD0BA199446F8
:104EF0003F2233009146F8B2301849466C461A7882
:104F00000A40C11A0133A1546345F6D12C003F2554
:104F10006A46013CE35D2B40D05C2418A04503D2D7
:104F20003DE04C44A0453AD36A46E35D31002B4056
:104F3000D35C20003A00994600F094F90028F0D1A3
:104F4000200011B0C0BCB946B046F0BD0904002332
:104F50002A78014300E00500002A1ED01B041343F9
:104F6000681C6A789942F6D16C1EE9E72A78002A13
:104F700013D00002084339041B060143194309BA40
:104F8000002301E099421DD02C001B020135134380
:104F90002A78002AF6D1994214D00024D0E743465B
:104FA000D819DB5D002BF8D08021090100F0DEF973
:104FB00080444445ACD90024C2E7280000F076F9CB
:104FC0000400BDE7033CBBE70906000401433F02C0
:104FD0002A78394300E00500002ADED013431B0283
:104FE0006A78681C9942F6D1AC1EA9E701003B0023
:104FF00032002800FFF704FE0400A1E7F8B50C001A
:105000000500FFF7ADFD204FBB685E6803239E439C
:105010001E4B341B9C466444240B013C1133240377
:105020009C4207DB00212800FFF7AAFDBB689B1903
:10503000984204D02800FFF79BFD0020F8BD28000F
:105040006142FFF79DFD431C0DD00122BB68361B5A
:1050500016435E600E4B28001A68141B1C60FFF795
:1050600087FD0120EAE700212800FFF789FDBA68E3
:10507000831A0F2BDEDD07490968401A04490860CE
:1050800001210B435360D5E778070020EF0F0000A4
:10509000C80C0020800B0020F0B5C64605000C00AF
:1050A00000B500294FD0FFF75BFD210008394C689F
:1050B000012622000320B2438F187B688343624895
:1050C00098468368BB426AD043467B6026421ED125
:1050D00008239C460C688444091B12198C6864459B
:1050E0004FD0CB68E3609C604346FC186468344250
:1050F00011D1BB68554C4244A34200D17EE0FC680C
:10510000DC60A360012313434B608A5006E0FC1867
:1051100064683442EDD016434E603A6080239B00B1
:105120009A4213D25409D3080122A2404468DB00FA
:105130002243426018188368C8608B608160D96020
:105140002800FFF715FD80BCB846F0BD530A042BBC
:105150003ED89409260039343836E400041923680F
:10516000083C03279C4242D05868B843904202D979
:105170009B689C42F8D1DC68CC608B60A160D960F0
:10518000DEE74346F8184068304257D1FB68B868FC
:1051900042441643C36098604E608A50D0E71300C3
:1051A0004344264206D10A68891A8C689B18CA684B
:1051B000E260946001221A434A60254A81601268C5
:1051C0009A42BDD8234B28001968FFF717FFB7E7AD
:1051D000142B07D9542B1AD8140B26006F346E36B3
:1051E000E400BBE71E005C335B36DC00B6E701225F
:1051F000B610B240466832434260BDE7D96099605C
:10520000CB608B60012313434B608A5098E7AA243C
:105210006400A34205D8D40B260078347736E40026
:105220009CE70D4CA34205D8940C26007D347C36B7
:10523000E40093E7FE247E26A4008FE733001343A7
:105240004B603A607CE7C04678070020800700206A
:10525000840B0020F80C0020540500007047C04665
:105260007047C04630B5032A0CD903000B439B0797
:1052700019D103680C68A34215D1043A04300431F3
:10528000032AF6D8551E002A0BD0002303E05A1C2F
:105290009D4206D01300C25CCC5CA242F7D0101B2A
:1052A00000E0002030BD551EEFE7C046CAB2F0B5A1
:1052B000002A35D0032483072DD1FF2529400D0274
:1052C00029430D040D4329000468264E61408B19C3
:1052D0008B43A119A143244E0B43334211D14168A2
:1052E000204F0C00CB196C408B43E119A1430B43B9
:1052F00004303342F3D00378002B05D09A4204D017
:1053000001300378002BF9D10020F0BD9342FCD08E
:1053100001302042D1D00378002BF7D10020F4E7F0
:10532000830708D0032202E00130104203D0037843
:10533000002BF9D1E9E702680A4B0B49D3189343D4
:105340000B4206D14268074B0430D31893430B42FB
:10535000F8D00378002BD8D043780130002BFBD154
:10536000D3E7C046FFFEFEFE8080808010B50300BC
:105370004418002903D109E001339C4204D01A7873
:10538000002AF9D1181A10BD201AFCE70020FAE70C
:10539000F8B5C0460000000001B40248844601BCD4
:1053A000604700BFC901002001B40248844601BC27
:1053B000604700BF1502002001B40248844601BCCA
:1053C000604700BF1502002001B40248844601BCBA
:0853D000604700BF95010020B9
:1053D800316538396564383334386465316234325C
:1053E800636530303064343966346438633839334F
:1053F8000000000041542B4D4F44453D4C574F543D
:1054080041410D0A0000000041542B4B45593D41D4
:1054180050504B45592C222573220D0A00000000DC
:1054280041542B434C4153533D410D0A00000000A9
:1054380041542B504F52543D380D0A0041542B4AC9
:105448004F494E0D0A0000006C696E6B696E67204B
:105458002E2E2E002B4A4F494E3A204E6574776FF8
:10546800726B206A6F696E65640000006E65747700
:105478006F726B20636F6E6E656374207375636300
:1054880065737366756C6C790000000041542B4D90
:1054980053473D225B25645D2573220D0A000000F9
:1054A80075735F73696E63655F626F6F74203C3DEF
:1054B80020494E5436345F4D41580000453A5C70DF
:1054C800726F6772616D5C5069636F2D53444B2D29
:1054D80076312E352E305C7069636F2D73646B5C8A
:1054E8007372635C636F6D6D6F6E5C7069636F5F21
:1054F800626173655C696E636C7564652F7069635E
:105508006F2F74797065732E680000002B4D534718
:105518003A20446F6E65000073656E6420666169A9
:105528006C65640025732073656E6420737563630E
:1055380065737366756C6C790A0000007368656E34
:10554800672C62632C7A7A79210000007570646197
:1055580074655F75735F73696E63655F626F6F749F
:105568000000000064656C7461203E3D202D3230DF
:1055780034382026262064656C7461203C3D203236
:1055880030343620262620212864656C7461202654
:1055980020312900453A5C70726F6772616D5C500A
:1055A80069636F2D53444B2D76312E352E305C7048
:1055B80069636F2D73646B5C7372635C7270325FC6
:1055C800636F6D6D6F6E5C68617264776172655F41
:1055D8006972715C6972712E63000000212864652C
:1055E8006C7461203E3E20313175290063757272FA
:1055F800656E74203D3D205F5F756E68616E646CFA
:1056080065645F757365725F697271207C7C206365
:10561800757272656E74203D3D2068616E646C65BC
:10562800720000006972715F68616E6465725F6321
:105638006861696E5F667265655F736C6F745F68D9
:10564800656164203E3D2030000000007674616290
:105658006C655F68616E646C6572203D3D205F5FBC
:10566800756E68616E646C65645F757365725F6999
:1056780072710000212828282875696E7470747268
:105688005F7429767461626C655F68616E646C65CD
:105698007229202D20282875696E747074725F74C1
:1056A800296972715F68616E646C65725F636861B5
:1056B800696E5F736C6F747329202D2031292573EF
:1056C800697A656F6628737472756374206972717C
:1056D8005F68616E646C65725F636861696E5F7351
:1056E8006C6F74292900000030783163203D3D201B
:1056F800282A696E7374293E3E3131750000000016
:1057080021657863657074696F6E207C7C2065788C
:1057180063657074696F6E203D3D206E756D202B3A
:1057280020565441424C455F46495253545F4952B2
:105738005100000066616C736500000069735F7357
:1057480068617265645F6972715F7261775F6861D1
:105758006E646C657228736C6F745F68616E646CDC
:1057680065722900657863657074696F6E00000062
:10577800666F756E640000006972715F6164645FD2
:105788007461696C5F746F5F667265655F6C69737D
:1057980074000000696E736572745F6272616E6393
:1057A800685F616E645F6C696E6B00006972715F3F
:1057B80072656D6F76655F68616E646C6572000016
:1057C8006D616B655F6272616E6368007265736FAD
:1057D8006C76655F6272616E636800006972715F02
:1057E8007365745F6578636C75736976655F686106
:1057F8006E646C6572000000746F74616C00000068
:10580800453A5C70726F6772616D5C5069636F2DA9
:1058180053444B2D76312E352E305C7069636F2DD5
:1058280073646B5C7372635C636F6D6D6F6E5C70D9
:1058380069636F5F73796E635C6D757465782E63E9
:10584800000000006D74782D3E636F72652E7370D2
:10585800696E5F6C6F636B006C6F636B5F69735F1E
:105868006F776E65725F69645F76616C6964286DD5
:1058780074782D3E6F776E65722900006D74782DEF
:105888003E656E7465725F636F756E74000000002C
:105898006D757465785F6578697400006D757465F9
:1058A800785F656E7465725F626C6F636B5F756E4F
:1058B80074696C0072742D3E616C61726D5F69640D
:1058C800203D3D2069640000453A5C70726F677244
:1058D800616D5C5069636F2D53444B2D76312E35C5
:1058E8002E305C7069636F2D73646B5C7372635CDC
:1058F800636F6D6D6F6E5C7069636F5F74696D6502
:105908005C74696D652E63006964202626206964CD
:10591800203C3D20706F6F6C2D3E686561702D3E98
:105928006D61785F6E6F646573000000696420269E
:1059380026206964203C3D20686561702D3E6D61BC
:10594800785F6E6F64657300453A5C70726F67725A
:10595800616D5C5069636F2D53444B2D76312E3544
:105968002E305C7069636F2D73646B5C7372635C5B
:10597800636F6D6D6F6E5C7069636F5F7574696C72
:105988005C696E636C7564652F7069636F2F7574DD
:10599800696C2F70686561702E68000070617265AF
:1059A8006E745F69640000006368696C645F6964B1
:1059B80000000000706172656E745F696420213DAB
:1059C800206368696C645F69640000002170685F27
:1059D800636F6E7461696E735F6E6F646528706F54
:1059E8006F6C2D3E686561702C2072657573655FFC
:1059F8006964290072656D6F7665645F6964203D2E
:105A08003D206E6578745F696400000063616C6CAA
:105A18006261636B00000000706F6F6C2D3E616CFB
:105A280061726D5F696E5F70726F67726573732004
:105A38003D3D206D616B655F7075626C69635F6980
:105A4800642869645F686967682C206E6578745F8C
:105A5800696429006964202626202170685F636FC5
:105A68006E7461696E735F6E6F64652868656170D6
:105A78002C2069642900000021686561702D3E664C
:105A88007265655F7461696C5F696400646566610D
:105A9800756C745F616C61726D5F706F6F6C5F695C
:105AA8006E697469616C697A656428290000000070
:105AB800616C61726D5F696420213D20706F6F6C4D
:105AC8002D3E616C61726D5F696E5F70726F677297
