:020000041000EA
:1000000000B5324B212058609868022188439860DF
:10001000D860186158612E4B002199600221596106
:100020000121F02299502B49196001219960352056
:1000300000F044F80222904214D00621196600F024
:1000400034F8196E01211966002018661A6600F04E
:100050002CF8196E196E196E052000F02FF8012189
:100060000842F9D1002199601B49196000215960AB
:100070001A491B48016001219960EB211966A021F2
:10008000196600F012F800219960164914480160C1
:100090000121996001BC002800D000471248134993
:1000A000086003C880F30888084703B5996A0420EC
:1000B0000142FBD001200142F8D103BD02B5186610
:1000C0001866FFF7F2FF186E186E02BD00000240BE
:1000D000000000180000070000035F00212200005C
:1000E000F4000018222000A00001001008ED00E03C
:1000F00000000000000000000000000074B24E7A12
:1001000000200420F7010010C3010010C5010010F9
:10011000C1010010C1010010C1010010C101001097
:10012000C1010010C1010010C1010010C701001081
:10013000C1010010C1010010C9010010CB01001065
:10014000CD010010CD010010CD010010CD01001037
:10015000CD010010CD010010CD010010CD01001027
:10016000CD010010CD010010CD010010CD01001017
:10017000CD010010CD010010CD010010CD01001007
:10018000CD010010CD010010CD010010CD010010F7
:10019000CD010010CD010010CD010010CD010010E7
:1001A000CD010010CD010010CD010010CD010010D7
:1001B000CD010010CD010010CD010010CD010010C7
:1001C00000BE00BE00BE00BE00BE00BEEFF3058054
:1001D000103800BEF2EB88713CC4001060C40010FF
:1001E0003402001090A31AE700201F49086006C8D7
:1001F00081F3088810471D48006800282FD10DA4FE
:100200000ECC002902D000F012F8F9E71849194A7B
:10021000002000E001C19142FCD1174988471749ED
:1002200088471749884700BEFDE701C901C29A42C5
:10023000FBD3704760C40010C0000020B40C002045
:1002400054D00010000004200000042054D00010FE
:10025000001004200010042000000000704709482E
:1002600003F076FA0047000008ED00E0000000D03F
:10027000B80C0020E4100020812400109D0600101E
:100280003D2400105756000006005250ABB3605397
:1002900030BA001006005250861C030240BA00100B
:1002A000060052505422A29D48BA00100500525038
:1002B000DE65F46854D00010F8B5C04610B5064CA1
:1002C0002378002B07D1054B002B02D0044800E017
:1002D00000BF0123237010BDB80D002000000000F6
:1002E00060A90010044B10B5002B03D0034904484B
:1002F00000E000BF10BDC04600000000BC0D0020A3
:1003000060A9001010B5040005F050FA021E04D0D8
:100310002318013B1B780A2B0CD02318013B1B78B8
:100320000D2B07D0012A04D902382218235C0D2B8B
:1003300005D010BD431EE31800211970F2E7002319
:100340001370F6E730B585B0041E1ED0002303936A
:10035000FFF7D8FF03AA0F49200005F069F901282B
:1003600002D0002005B030BD039B0A4A0A2168462E
:1003700003F0C2F9684605F019FA0500200005F0FF
:1003800015FA854203D00020ECE70020EAE70120BF
:10039000E8E7C04660A9001070B584B00E001D00EB
:1003A00001AC0A220100200005F02EFA002363723E
:1003B0003100200005F05EFA0E4905F0B3F900287F
:1003C00003D00026300004B070BD310005F052FAB1
:1003D000041E0AD0FFF7B6FF061EF3D00A22002142
:1003E000200005F037FB2860ECE708232B6001268E
:1003F000E8E7C04664A9001010B50400074B1B686D
:100400005A6804F025FA2000FFF77CFF0449200019
:1004100005F088F9002800D0012010BDE802002076
:1004200068A9001070B504000E00150000F0DAF99C
:100430000123A340002E05D0D02212065362002DC6
:1004400004D170BDD02212069362F8E70022012188
:10045000200000F0ADF9F4E7012809D00B6807335C
:10046000D817400F1B18072213401B1A0B60704748
:100470000B680133D817400F1B18072213401B1AB3
:100480000B60F4E702011E4BD358002B23D0D0237E
:100490001B0604225A610201194B9B185B68002B52
:1004A0001ED0D0231B0608225A610201144B9B1850
:1004B0009B68002B19D0D0231B0640225A610001F3
:1004C0000F4B1818C368002B14D0D0231B068022B2
:1004D00092015A617047D0231B0604229A61DAE721
:1004E000D0231B0608229A61DFE7D0231B06402297
:1004F0009A61E4E7D0231B06802292019A61E9E722
:1005000068AA001070B582B00E0001920A4B1D68F7
:100510004543ED0800240AE00198FFF7B3FF01A965
:100520003000FFF799FF012001F03AF90134AC42A5
:10053000F2D302B070BDC0469C0E0020F0B5D64686
:100540004F464646C0B581468A4690461E00089FE3
:1005500019E04B461868FFF795FF49465046FFF7EC
:100560007BFF434632681A60D0231B065D682D0F5F
:1005700001242C403460002F02D03B6801333B60E3
:10058000012001F00DF943461B68012BE1D13368CE
:10059000002BDED142461360D0231B065A68120F8F
:1005A000012313403360E0BCBA46B146A846F0BD13
:1005B00010B5002805D0074B1968074803F060FF05
:1005C00010BD064B1B68DB6816220121044804F0AD
:1005D0008FFAF5E79C0E002070A90010E8020020B9
:1005E00094A90010F0B587B005000E001700002395
:1005F0000593D02212065168090F01220A40049285
:100600000393009304AB05AA0121FFF797FF002491
:1006100008E003AB009304AB05AA01212800FFF713
:100620008DFF0134022CF4DD01233B60032103988C
:1006300003F0BAF8306007B0F0BD10B50122002118
:100640001C20FFF7EFFE002201210220FFF7EAFE47
:10065000002201210320FFF7E5FE002201210620F0
:10066000FFF7E0FE002201210D20FFF7DBFE10BDA9
:1006700010B504000A22002103F024FD064803F00F
:10068000FFFE0A212000FFF7B7FE2000FFF73AFE29
:100690000A2003F05FFE10BDACA9001030B587B092
:1006A00003F0FAFE002403940622002104A803F0BC
:1006B00009FD02AB20221A800194FFF7BEFF03A8B8
:1006C000FFF7D6FF23E0264803F0AAFE03A8FFF7B2
:1006D000CFFF01AB002202A903A8FFF75DFE0500D2
:1006E000204903A805F01EF8041E07D01E4903A8E0
:1006F00005F018F8002801D0002DE4D0002C0ED110
:100700001A4B1868FFF754FF03A8FFF7B1FF01ABBE
:10071000002202A903A8FFF73FFE0500E0E7124907
:1007200003A804F0FFFF00280CD0002DECD0104BE4
:100730001B68002B0FD00F4B1A6801210198FFF79F
:10074000E1FEE1E7094A0A490A48FFF74BFF0A4878
:1007500003F066FED8E7094803F062FED4E7C0461E
:10076000E4A9001034AA00103CAA0010A80E002032
:100770009C0E0020C410002044AA001050AA0010B3
:1007800010B58300084A944663441C6840226240C6
:10079000C02414408022520113431C60C000034B4C
:1007A0009C466044416010BD04C0014000400140CF
:1007B00080000B4B9C46604400290DD00823002A82
:1007C0000CD004221343026853400C2213408022B1
:1007D00052011043036070470023F0E70022F1E765
:1007E00004C0014010B501238340D0221206936259
:1007F00093610521FFF7C4FF10BD0000034B1B6888
:1008000002201840431E9841C0B2704700C0064005
:10081000EFF3108072B6034B1B68002BFBD0BFF3C5
:100820005F8F70472C0100D0BFF35F8F024B002217
:100830001A6080F3108870472C0100D0F8B50600CC
:100840000C001500FFF7E4FFE308F718F15C07223E
:100850002240012393400B4205D1DBB20B433B7096
:10086000FFF7E2FFF8BD2100280001F085FE00003F
:10087000002307E0054A9A189200BFF35F8F00211A
:10088000116001331F2BF5D97047C046400000347A
:10089000054A1078431CDBB21370172B02D91300E2
:1008A00010221A707047C04638020020074B9B6820
:1008B000103080001950BFF35F8FBFF35F8F044B80
:1008C0000021196082F310887047C04600ED00E0F7
:1008D000240100D010B5091A081F0A4B9C46614438
:1008E000094A914208D8C30706D440104005400D7C
:1008F000064B184380B210BD054B064AA32106489B
:1009000001F0A0FDFC070000FE0F000000E0FFFF6B
:10091000E8AA001044AD001018AB001010B5091A79
:1009200004394C08090B08D14905490D064A114301
:100930000180064B2343438010BD054B054AAB2184
:10094000054801F07FFDC04600F0FFFF00F8FFFF03
:1009500060AB001018AD001018AB001001238340ED
:10096000034A10681840431E9841C0B27047C04601
:1009700000E100E0002904D0034B1860034B18602D
:100980007047034B1860FBE780E200E000E100E005
:1009900080E100E010B5012383401800FFF7EAFF73
:1009A00010BD0000024B9B6810308000C05870479B
:1009B00000ED00E070B504000D00EFF3108672B694
:1009C0000C4B1B68002BFBD0BFF35F8F2000FFF7A1
:1009D000E9FF094B984201D0A84205D13200290015
:1009E0002000FFF763FF70BD044B054A86210548D0
:1009F00001F028FD240100D0CD01001070AB0010E3
:100A000060AD001018AB0010F0B5CE46474680B57B
:100A100083B006000D00EFF3108872B6564B1B68CA
:100A2000002BFBD0BFF35F8F544B9A683400103417
:100A3000A300D758524B9F4207D0AF4200D198E055
:100A40000197504BFB1A2F2B09D942463900300031
:100A5000FFF72CFF03B0C0BCB946B046F0BD300074
:100A6000FFF77CFF814600213000FFF793FFBFF3C3
:100A70005F8FEFF30581002901D08C4211D1012352
:100A8000019C9C430022A368AB4212D00622A256CE
:100A9000002A0DDB53009B189B002200394CE41800
:100AA000F1E73621384B394AFF31394801F0CAFCA9
:100AB0002200AB4256D106256557002D38DB6B006E
:100AC0005B199A002F4B9B189A68A260DA79E27141
:100AD00006229A56A2719B795BB2002B0FDA2D4841
:100AE000A0806B005B199B00264AD3182A4A117814
:100AF0009971157049463000FFF74CFFA5E7201D9E
:100B00006B005B199B001F4A9B181A1D9B88D90A12
:100B10001C2907D15B055B15023359005118FFF7FB
:100B2000D9FEDDE71D4B1E4AB121194801F08AFCB0
:100B3000002912D1002A0ED0FF239371194B938004
:100B4000154A1378A371184B0E49641A6441634324
:100B50001B0D1370CEE70A4FF2E7201D1349FFF774
:100B6000DDFEC7E76A21124B084AFF31084801F051
:100B700069FC034F69E7C046240100D000ED00E0A6
:100B8000CD0100103C02002084AC001030AD0010FC
:100B900018AB001001BD0000E11000206CAC00108B
:100BA00050AD001001BDFFFFAAAA00007602002090
:100BB000B8AC001070B5012101432E4BCB1A2F2B7E
:100BC00028D8EFF30583002B2BD0EFF3108C72B6EF
:100BD000294A1268002AFBD0BFF35F8F274A04001E
:100BE000244D641B64416243120D54B2244A92683E
:100BF0009B00D2588A421BD00022032A32D85300CD
:100C00009B189B001B49CB189B795BB2A3421FD05A
:100C10000132F2E7C7211B4B1B4A49001B4801F078
:100C200011FC92211A4B184AFF31184801F00AFCB6
:100C3000134A92681749D150174B1A7882711C7069
:100C4000BFF35F8F0C4B00221A608CF3108870BDCD
:100C50000D005300991889006918FF268E710F4AFC
:100C60008A80E9E7D1210E4B074A4900074801F085
:100C7000E9FBC0463C020020240100D0AAAA0000E3
:100C800000ED00E0C0AC0010FCAC001018AB001090
:100C9000E8AC0010CD010010E110002001BDFFFF05
:100CA000F4AC00100022044B02E0044902C30132FC
:100CB000072AFAD97047C04600E400E080808080AF
:100CC000024B9C466144890001607047400000343B
:100CD00010B50400FFF7DCFD01002000FFF7F0FF76
:100CE000FF232371BFF35F8F10BD10B50400FFF722
:100CF000CFFD01002000FFF7E3FFFF232371002356
:100D00006371BFF35F8F10BD70B505000C00080064
:100D100000F0FAFE0949200000F03AFEFFF7B8FDA6
:100D2000074B9C466044800068602C75D0231B06EE
:100D30001B786B75A400034BE55070BD4D1000107F
:100D400040000034AC0E00200A4B1A68EFF310810B
:100D500072B61368002BFCD0BFF35F8F054B1B6886
:100D6000BFF35F8F00221A6081F3108840BF00201C
:100D700000217047C010002010B5002922D0036860
:100D80001B7B99421ED8174B9C466144090183681E
:100D90009C4661440C684968002A19D003681B7B93
:100DA0009A4215D883680F488446624412019A1803
:100DB00010685368020001208B4201D80ED0002039
:100DC000C0B210BD084B094A3C21094801F03AFB6A
:100DD000054B064A3C21064801F034FBA242EFD8FD
:100DE000EDE7C046FFFFFF0FF8AE001064B1001042
:100DF000B8AE001010B500291ED0037B99421BD855
:100E00004B005B18033B0468A4466344002919D0D7
:100E1000002A1DD0914221D0002A25D0047BA24275
:100E200022D804685000801803382018817019787F
:100E300000291FD11A7010BD104B114A68211148AA
:100E400001F000FB104B114A6F310E4801F0FAFA25
:100E50000F4B0E4A70210B4801F0F4FA0D4B0B4A70
:100E60007121084801F0EEFA044B054A6821054853
:100E700001F0E8FA41701A70DDE7C0461CAF0010BF
:100E8000D0B1001038AF00108CAF0010ACB1001022
:100E900098AF0010A4AF001070B506000D0014004C
:100EA000002914D0002A14D080687368984700285D
:100EB00006D0220029003000FFF79CFF280007E041
:100EC0002A0021003000FFF795FF200000E010000D
:100ED00070BD0800FCE70000F0B583B0050000928B
:100EE00001930AAB1C780BAB1F78002C26D003684B
:100EF0005A7B944207D10123002B19D1002C3BD1FE
:100F0000200003B0F0BD002C0CD01A7B944209D80D
:100F10001A6863001B19033BD3189B78002BEBD096
:100F20000123E9E73E4B3F4A68213F4801F08AFA36
:100F30003E4B3F4A67213F4801F084FA03689C7B9F
:100F4000002CDBD012D01A7B94420FD86200121909
:100F5000033A19688C46624451789973002900D18C
:100F6000D9730023937053701370C7E72C4B2D4A2D
:100F700068212D4801F066FA002C3AD02B681B7BC3
:100F80009C4236D82C4BE3181B01AA689446634454
:100F9000009A1A60019A5A60089A9A60099ADA606F
:100FA0002E68002C2BD030D0337B9C422DD8630090
:100FB0001B19033B32689446634400229A705A70AE
:100FC0001A70717B22003000FFF766FF7073844255
:100FD00000D095E7287D009A019B00F021FD061EB8
:100FE00001D0002F17D00C9B002B00D188E71E707A
:100FF00086E7124B124A3C210E4801F023FA114BAE
:10100000114AA521084801F01DFA054B054A68213F
:10101000054801F017FA2868210000F039FFE2E7DF
:101020001CAF0010D0B1001038AF0010BCAF0010E2
:10103000DCB10010B8AE0010FFFFFF0FF8AE0010DB
:1010400064B10010B4AE0010C0B10010F0B5DE46BF
:1010500057464E464546E0B58BB0099000230893AD
:101060008200B54BD658370052E0B44BB44A3F210A
:10107000B44801F0E7F9B44BB44A3C21B44801F05C
:10108000E1F9002901D1002869D10021404600F092
:10109000F5FEA04219D12A686B6806920793AB68E7
:1010A0009846EB689A464346002B14D0002C18D083
:1010B0003B681B7B9C4214D8631EFA68D35C089380
:1010C0001B0218433861002015E0A24BA24A8E2172
:1010D0009F4801F0B7F9A14B9F4A92219C4801F02B
:1010E000B1F9994B9E4A4121994801F0ABF900238F
:1010F0009A46984600207B68BFF35F8F00221A60F3
:1011000086F310884346002B32D1002800D10CE131
:1011100000F0FAFB02000B1EA7DB00200021069066
:1011200007917868EFF3108672B601680029FCD049
:10113000BFF35F8F396888464C7B002CD7D09AD09C
:10114000097B8C4297D8874965182D01B9688C4670
:10115000654428686968801A9941002991DD2A68E8
:101160006B68099800F05CFC00239A469846C2E739
:10117000089B1B022343994651461800C0470500AF
:101180000E007A68EFF3108B72B6136859424B4128
:10119000D9B2002BF9D1BFF35F8F002E1EDB002EDA
:1011A00046DD3B69002B47D04B456DD100F0ACFBD1
:1011B00002000B1E6EDB52197341002B70DB002BFB
:1011C00072DB002104910131039102945146019197
:1011D000414600913800FFF77FFE4CE03B69002B51
:1011E000DDD04B4514D1069A079B521BB341002B0F
:1011F00014DB002B16DB00210491013103910294D2
:1012000051460191414600913800FFF765FE32E0FA
:10121000554B514AA1214E4801F014F90122524286
:10122000524BE6E7454B464A3F21464801F00AF952
:10123000002E01D1002DB4D13B68002C50D05A7B38
:10124000944237D1012100294AD1DA7B002A4DD1BD
:101250009A7B002A03D1DA7B002A5AD19C73DC7373
:10126000002C5CD03B681B7B9C4258D8FA68013C40
:10127000135D0133135500233B617A68BFF35F8F21
:1012800013608BF3108843E7374B334AA42130486F
:1012900001F0D8F8294B2A4A3F212A4801F0D2F818
:1012A00001225242314B8AE7244B254A3F212548EF
:1012B00001F0C8F8002C0DD01A7B94420AD86200C5
:1012C0001219033A1868844662449278002ABAD008
:1012D0000121B8E7264B274A6821274801F0B2F8D8
:1012E000264B274AF621244801F0ACF8002A0AD000
:1012F000197B8A4207D851008A18033A19688C462C
:1013000062445470A4E71A4B1A4A68211A4801F043
:1013100099F81C4B1A4AFB21174801F093F80A4B25
:101320000F4A41210A4801F08DF80BB0F0BCBB46D2
:10133000B246A946A046F0BDAC0E0020DCAD0010C0
:1013400030B10010F8AD0010F8AE001064B100101C
:10135000B8AE0010E4AF001048B10010FCAF0010B0
:1013600088B10010FFFFFF0F08B00010FFFFFF7FE4
:101370001CAF0010D0B1001038AF001044B0001006
:101380009CB1001068B0001010B50C4B5B68002BCE
:1013900004D00A210A48FFF793FC10BD074C230034
:1013A000084A1021206800F079FC032000F0A0FA20
:1013B00003212000FFF7A8FCEBE7C04684020020D1
:1013C000C0100020790D001010B5064B5B68002B93
:1013D00001D0044810BD044B044A5E21044801F0CA
:1013E00031F8C046840200207CB0001070B10010BB
:1013F000B8AE0010F0B5DE4657464E464546E0B55D
:101400008BB0804616001F00149B9A46159B994688
:1014100016AB1B789B461F2302AA94466344002206
:101420001A702BE0002809D042461268127B9042C5
:1014300004D8421E4146C9688A5C41E0404B414A9B
:101440004121414800F0FEFF07984CE0361BAF41B8
:10145000002F07DB002F11DA3C4B3D4A3F213D486E
:1014600000F0F0FF012676423B4FF3E7374B384A56
:101470003F21384800F0E6FF002F4FDB43465A6813
:10148000EFF3108472B6136859424B41D9B20791F9
:10149000002BF8D1BFF35F8F1F3302AA9446634439
:1014A00004930023039302934B4601935346009306
:1014B00032003B004046FFF70FFD031EB2D1020091
:1014C00041464968BFF35F8F00250D6084F31088A3
:1014D000002B29D01F2302A98C4663441B78002BC4
:1014E000B2D112021043002B20D05B46002B1DD03E
:1014F0004946D04704000D0003000B431DD00029CE
:10150000A4DB00F001FA06000F1EAFDB36196F41B5
:10151000002FB1DA012676420F4FADE70B4B0C4A94
:101520003F210C4800F08EFF012040420BB0F0BC80
:10153000BB46B246A946A046F0BD0798F6E7C046AE
:10154000F8AE001088B10010B8AE0010DCAD00108D
:1015500030B10010F8AD0010FFFFFF7FF8B50400B8
:101560004268EFF3108572B6136858424341D8B20F
:10157000002BF9D1BFF35F8FCBB22268567BB34209
:101580001BD10120002848D0206988422BD0090AAD
:10159000C9B2002B2ED02068007B83422AD8581E67
:1015A000E668305C88422BD000206368BFF35F8F11
:1015B00000221A6085F31088F8BD002B0DD0167B31
:1015C000B3420AD85E00F618033E1768BC4666446C
:1015D000B678002ED6D00120D4E7134B134A6821E9
:1015E000134800F02FFF9521124B134A490013486E
:1015F00000F028FF124B134A4121104800F022FF4F
:101600001900100000F044FC0028CED132210E4B0E
:10161000094AFF31094800F015FF23698B42C4D104
:1016200000232361C1E7C0461CAF0010D0B10010F9
:1016300038AF0010A0B0001018B10010B8AE001004
:10164000F8AE001088B10010C4B00010F0B587B03B
:1016500006000F00EFF30583002B1FD10624644220
:10166000E517A4197D418D4202D803D1844201D9E6
:1016700000240025002D14DB0494059500F044F9A6
:1016800002000B1E13DBA41A9D41002D17DC14D0A1
:101690003000390000F044F907B0F0BD234800F0F5
:1016A0006BFF234B234A3F21234800F0CBFE204B06
:1016B000204A3F21204800F0C5FE002CE8D0FFF76B
:1016C00083FE0023029301931C4B0093049A059B15
:1016D000FFF790FE002818DADAE7002300E0002385
:1016E000002BD5D1164B1A68EFF3108172B6136830
:1016F000002BFCD0BFF35F8F114B1B68BFF35F8FD4
:1017000000221A6081F3108820BF0499059A0D4BBE
:101710005B6A9A42E3D80B48806A884203D29A42B5
:10172000DBD00123DCE70123DAE7C046C8B00010B4
:10173000DCAD001030B10010F8AD0010490D001004
:10174000C01000200040054070B504000D0000F0FE
:10175000DBF802000B1E0ADB20002900801859412B
:1017600000290ADB00290CDBFFF770FF70BD084B76
:10177000084A3F21084800F065FE01204042074921
:10178000F0E7034B034A3F21034800F05BFEC046ED
:10179000DCAD001030B10010F8AD0010FFFFFF7F8E
:1017A00010B5FA2292000023002102F0F7FBFFF7A8
:1017B000CBFF10BD70B584B005000C00EFF30583BE
:1017C000002B1ED1FFF700FE002302930193224B52
:1017D00000932A002300FFF70DFE061E23DD20BF25
:1017E000FFF7F2FD3100FFF7B9FE1C4B5B6A9C422C
:1017F0002DD81A4A926AAA422CD29C4225D00120A6
:1018000026E0164B5B6A994209D8144A926A8242D2
:1018100007D2994201D001201AE0002018E00020F0
:1018200016E0012014E00D4B5B6A9C4209D80B4A7C
:10183000926AAA4207D29C4201D0012008E000200F
:1018400006E0002004E0012002E0002000E000208B
:1018500004B070BD0120FBE7490D001000400540B9
:1018600070B5EFF305801038EFF3108C72B61A4B99
:101870001B68002BFBD0BFF35F8F01221300834056
:1018800016494B6316490B60164909780C00C44091
:10189000224214D0114A546A8200134D5259944284
:1018A00006D38200114C125999430E4B197007E070
:1018B0000A4A031D9B0099589950002200E000221B
:1018C000BFF35F8F044B002119608CF31088002A4E
:1018D00000D0904770BDC046280100D000400540B0
:1018E0003C700540E2100020C8100020140E0020BB
:1018F00010B50100024A0348FEF7A0FF10BDC04624
:1019000000B20010E0100020044B5B6A034A906AAA
:101910001900536A9942F9D17047C046004005400A
:10192000084B5B6A01E0074B5B6A8B42FBD301E02B
:10193000044B5B6A8B4203D1024B9B6A8342F7D311
:101940007047C0460040054070B504000D00FFF729
:10195000DBFF02000B0020002900801859418B4258
:1019600002D804D1824202D901204042C117002985
:1019700002DBFFF7D5FF70BD024B034A3F2103484E
:1019800000F060FDDCAD0010B0B20010F8AD00104A
:1019900070B504000D00EFF3108672B61B4B1B6888
:1019A000002BFBD0BFF35F8F002D1CD02000FEF773
:1019B000F9FF174B83420BD019002000FEF7FAFF06
:1019C00001212000FEF7E6FF0123A340114A136026
:1019D000A400114BE550BFF35F8F0C4B00221A603F
:1019E00086F3108870BDA2000B4B0021D15001225C
:1019F000A2400A490B7893430B7005492000FFF77A
:101A000003F800212000FEF7C5FFE4E7280100D01D
:101A10006118001038600540140E0020E21000200C
:101A2000F0B5DE4600B584B00400150001921E003A
:101A30000293FFF769FF03958E4202D84ED185428B
:101A40004CD9EFF3108B72B6274B1B68002BFBD0E1
:101A5000BFF35F8F254A17780125A540EBB23B43C2
:101A60001370234B5D63221D92000199D150A20097
:101A70002049029850501B6A2B4212D11C4B1B6C00
:101A80002B4208D00020BFF35F8F174B00221A6053
:101A90008BF3108823E0184B184AC521184800F032
:101AA000D1FCFFF731FF8E4214D802D1039B834251
:101AB00010D80E4B1B78BB420ED00D4B1D625D63E0
:101AC0001F2004400123A3400E4A1360074B1F70E0
:101AD0001E38D8E70020D6E70120D4E7012004B063
:101AE00080BCBB46F0BDC046280100D0E2100020FB
:101AF00000400540C810002024B2001094B200102D
:101B000048B2001080E200E0EFF3108C72B60B4B8D
:101B10001B68002BFBD0BFF35F8F01238340084A73
:101B2000136208490A789A430A70BFF35F8F034B28
:101B300000221A608CF310887047C046280100D03C
:101B400000400540E210002010B500291ED0037BA4
:101B500099421BD84B005B18033B0468A4466344BE
:101B6000002919D0002A1DD0914221D0002A25D069
:101B7000047BA24222D80468500080180338201841
:101B80008170197800291FD11A7010BD104B114AAD
:101B90006821114800F056FC104B114A6F310E4875
:101BA00000F050FC0F4B0E4A70210B4800F04AFC2D
:101BB0000D4B0B4A7121084800F044FC044B054AC8
:101BC0006821054800F03EFC41701A70DDE7C04610
:101BD0001CAF0010C0B3001038AF00108CAF001065
:101BE000ACB3001098AF0010A4AF001070B50600A1
:101BF0000D001400002914D0002A14D080687368E6
:101C00009847002806D0220029003000FFF79CFFEB
:101C1000280007E02A0021003000FFF795FF200090
:101C200000E0100070BD0800FCE7000010B50023C4
:101C3000437301338373037BC3730123027B9A4293
:101C400014D9002B0CD0027B934209D85A00D21829
:101C5000033A01688C4662440133DBB25370EDE70E
:101C60000B4B0C4A68210C4800F0ECFB002A09D011
:101C7000924207D8016853009A18033A8A18002341
:101C8000537010BD024B034A6821034800F0DAFB91
:101C90001CAF0010C0B3001038AF001010B50173B6
:101CA00042608360FFF7C2FF10BD000070B5040002
:101CB000081E00D170BD002934D0237B994231D851
:101CC0004B005B18033B2268944663445A78002A11
:101CD000F0D02DD0237B9A422AD853009B18033B87
:101CE00021688C4663445D7800215970002825D016
:101CF000237B984222D843001B18033B21688C4663
:101D000063440021597001002000FFF76FFF0600B7
:101D100029002000FFF7CAFF020031002000FFF772
:101D200065FFC7E7084B094A6821094800F08AFBAC
:101D3000054B064A6821064800F084FB024B034A23
:101D40006821034800F07EFB1CAF0010C0B30010F8
:101D500038AF001070B505000C00160000292FD018
:101D600034D0037B994231D84B005B18033B0268A7
:101D7000944663445A78002A2ED19A78002A31D1A9
:101D80001978FFF793FF0300002E0AD0EA7B002AA0
:101D90002ED1AA7B002A03D1EA7B002A3BD1AC7367
:101DA000EC73002B3DD1002C4FD02B7B9C424CD8A8
:101DB0002B6861000C19033C1C190023637070BD73
:101DC000254B264A3821264800F03CFB254B264A65
:101DD0006821264800F036FB254B204A3A2120484E
:101DE00000F030FB234B1D4A3B211D4800F02AFB2D
:101DF000002A0AD0297B8A4207D851008A18033A60
:101E000029688C4662445470C3E7164B164A682111
:101E1000164800F017FB184B104A4221104800F0FA
:101E200011FB002B0BD02A7B934208D843001B18D0
:101E3000033B2A689446634400229A70B3E7094B37
:101E4000094A6821094800F0FDFA064B064A682154
:101E5000064800F0F7FAC046C8B2001098B3001068
:101E6000D0B200101CAF0010C0B3001038AF00108B
:101E700014B300103CB3001068B0001070B504003B
:101E80000A00457B2900FFF765FF6073280070BDDD
:101E900070B50400002967D0437B8B420ED0002927
:101EA00011D0037B99420ED84B005B18033B0268AC
:101EB000D0188378002B0CD1002056E00121FFF7C9
:101EC000DDFF012051E0294B294A6821294800F013
:101ED000B9FA002B20D0227B93421DD85A00D31888
:101EE000033B2268D2182568EB5C8B421AD0002B8A
:101EF0001BD0227B934218D85A00D318033B226888
:101F0000D21853788B4216D0002BF0D11A4B1B4AB3
:101F10006B211B4800F096FA144B154A68211548AE
:101F200000F090FA4378137007E0104B104A6821D4
:101F3000104800F087FA4378537000238370437091
:101F400001222000FFF706FF0200617B814205D0DD
:101F50002000FFF74BFE6073012006E0094B074AA3
:101F60007121074800F06EFA002070BD1CAF001010
:101F7000C0B3001038AF0010F4AC001080B30010F4
:101F8000D0B2001060B3001070B504000D00062040
:101F900000F07EF9C000290001F02EFCC60908D02F
:101FA0000E4B9E4217D87F2318400130350046085B
:101FB00000E001256562A6622C3480208001044384
:101FC00000232360062000F063F98000A90189192D
:101FD00001F012FC70BD0026014DEBE7FEFF000092
:101FE000FFFF0000002909D00A22064B9C466044EE
:101FF000434258414000044BC25270478022520075
:10200000F3E7C0460080FCBFD810002070B5050083
:102010000C00062000F03CF9002829D0164B9D4208
:1020200027D08022D203154B1A60154B1A60154B2E
:102030009B6811009943FAD100212800FFF7D2FFD5
:1020400021002800FFF7A0FF2C002C34E96A602251
:102050004A406E21114080225201224311600A4BF6
:102060002B6380239B01234310221A600323AB645C
:1020700070BD80221204D6E70080034000E00040DB
:1020800000F0004000C0004001030000F8B5DE464B
:1020900057464E464546E0B505000F0092460A9A5F
:1020A00093424ED31A0E91461E020A9A0023300024
:1020B000494601F0DFFB80466C006419A4002F4BF9
:1020C0009C4664446368834200D260602B1FDBB28D
:1020D0009B46012B3BD9C0239B0123438022120145
:1020E0001A60AB00264A9958002905D0506901F0C2
:1020F00083FB01300138FDD153465A0123685A4011
:10210000E0231A4080235B0123431A605A46012AC8
:1021100028D980239B012343802212011A60434661
:102120006360424600233000494601F0A3FBAD0046
:10213000134B58510120F0BCBB46B246A946A046FD
:10214000F8BD104B104A2D21104800F07BF9012FEB
:10215000C1D1C0239B01234303221A60A368DB077C
:10216000FCD5C9E72168794003220A401A60A268B9
:102170000123BB401342FAD0CBE7C04600800040A9
:102180002C0E0020CCB300102CB40010E0B30010D3
:1021900030B583B00C2000F017F9FEF72FFB0028B4
:1021A0000DD0002304E099002D4A2E4888500133B9
:1021B000092BF8D92A4B2C4A5A6203B030BD2B4B5D
:1021C00000229A6700F008F9294B01221A60274B78
:1021D0005B6C012BFBD1274B03221A60234B9B6BBB
:1021E000012BFBD1013300930433234A01212348FF
:1021F00000F054F805230093214A0121214800F002
:102200004DF8214B0093002202210420FFF73EFFEE
:102210001E4D00952B00002201210520FFF736FFFF
:10222000104C00942300002200210720FFF72EFF0E
:1022300000942300002200210820FFF727FF0A4B0B
:1022400000932300002200210920FFF71FFF0095C3
:102250002B00002200210620FFF718FFADE7C04643
:102260002C0E0020006CDC021BB700000080004038
:102270003CB0004030B00040002F68590080024060
:10228000008C864700C00240001BB700405973070E
:102290008000014BC05870472C0E0020F0B5C64698
:1022A00000B504000D00170098460C2001F0A4FAB8
:1022B0000600394BFA18394B9A4241D843011B1A90
:1022C0009901C91AC90009188901380001F094FA66
:1022D0000200103A98235B009A4237D84346013BEC
:1022E000062B39D8069B013B062B35D83F09B74250
:1022F00038D343461E04069B1A0316432368002B5B
:1023000036DB274B9C4244D080225201254B1A6079
:10231000254B1A60254B9B6811009943FAD1256023
:10232000A060231DC02292011A4321231360236859
:10233000002BFCDAE6600823136080BCB846F0BDD1
:102340001B4B1C4A11211C4800F07CF81B4B194AFE
:102350001921194800F076F8194B164A1C21164825
:1023600000F070F8174B134A2321134800F06AF865
:1023700022683F231340AB42C3D1A3681B051B0D4A
:102380008342BED1E368EE22D2021340B342B8D1F9
:10239000D3E780229201B9E780E84BD380F8A932D5
:1023A00000C0024000E0004000F0004000C00040DB
:1023B0003CB4001068B500109CB40010E4B40010E8
:1023C00000B500104CB5001080239B000343014A68
:1023D000D362704700800540064BAA2212011A60A2
:1023E0002F22DA60044B054A1A60024B5B68002B0F
:1023F000FBDA7047004002400060024000B0FA0083
:1024000000BEFDE703000A4A1268002A08D0084A05
:102410001068C318074A9A4206D3054A13607047EA
:10242000034A05491160F2E701204042F7E7C04640
:10243000A40E002000000420E410002010B5FFF7D7
:10244000DFFF000010B582B00C001900002A0CD08C
:10245000084B002A0BD0019200932300020006488B
:1024600002F00EF80120FFF7CBFF044BF1E7034A1F
:10247000F1E7C04674B5001084B5001090A90010B3
:1024800070B52B4B2B4A1A602B4B2C4A1A602C4BE5
:102490009A682A4B9343FAD12A4C01E008CC98471A
:1024A000294B9C42FAD3FFF773FE234B274A1A604D
:1024B000234B9B68DB43DB01FAD1254B40229A6713
:1024C0005A671A67DA66234C09E0234B234A8621B0
:1024D0002348FFF7B7FF2000FEF7FAFB0834214B33
:1024E0009C4209D22368002BF5D0012BEDD12000AE
:1024F000FEF7FBFB0834F2E71B4CA1681B4DC02222
:10250000280001F0E5FDA560EFF30583002B00D066
:1025100000BEFEF7ADF9FEF7C5FBFEF735FF144C24
:1025200001E008CC9847134B9C42FAD370BDC046DB
:1025300000E00040BFCDFBFE00F00040FE7F3C000D
:1025400000C00040A00C0020B00C0020FFFFFF01E5
:1025500000F00140980C0020B4B5001034B6001013
:10256000D4B50010A00C002000ED00E00000002019
:10257000B00C0020B40C00200FB400B583B00848A4
:1025800001F04EFF049B002B07D005A90191180014
:1025900001F056FF034801F043FF0120FFF730FF31
:1025A00020B6001030B600109A4200D2885470470E
:1025B000704710B5002802D00B684968984710BDD5
:1025C0000100002007E083001B185B00501C08601E
:1025D0001078C01830380A681378303BDBB2092B0A
:1025E000F1D97047F0B5DE4657464E464546E0B550
:1025F00083B093461F000C9B9A460D9C0E9B9946F8
:102600000F9B9B0703D0B8460F00060022E0019203
:10261000A34688464E46B9460700B44207D2551C29
:102620004B4641462020B84701342A00F5E73D00DB
:102630004F465C46019B9B46B1464646B84637002E
:102640002E0007E0013C551C5346185D43463900F7
:10265000B0472A00002CF5D135003E0047460F9BBD
:102660009B0707D4100003B0F0BCBB46B246A94696
:10267000A046F0BDB0464E46B9462F005D46531BFE
:10268000B342EFD2541C4B4641462020B8472200AB
:10269000F5E7F0B5CE46474680B585B094469846F6
:1026A0000C9D0D9C0EAB1B789946109A119B129EA7
:1026B000B7071CD4002B0CD0F7070AD54F46002FC4
:1026C00002D10C37374204D0013B02E030272F55AE
:1026D0000134944201D21F2CF8D9F70707D59C4248
:1026E00005D21F2C03D830272F550134F5E7F70604
:1026F00015D5770505D4002C03D0944224D09C42F4
:1027000022D00F9A102A2BD00F9A102A30D00F9A6D
:10271000022A35D01F2C02D830222A5501341F2C12
:1027200005D84A46002A31D02D222A550134039675
:1027300002930194009543466246FFF753FF05B0AC
:10274000C0BCB946B046F0BD621E012C06D00F9F3A
:10275000102F01D01400D4E7023CD2E71400D0E7D8
:10276000B206D1D41F2CCFD878222A550134D1E714
:10277000B206CCD51F2CCAD858222A550134C9E735
:102780001F2CC7D860322A550134C3E7720703D51E
:102790002B222A550134CAE73207C8D520222A55F0
:1027A0000134C4E7F0B5DE4657464E464546E0B52F
:1027B00093B081468A46089209931CAB10CB1B78D4
:1027C0009B461E9D219B9846002C03D11023424618
:1027D0009A4390468023DB0046461E4042461A42FA
:1027E00012D0002C22D000260EE03033D9B2771C54
:1027F0000AAB99552900200000F0FEFFAC4216D329
:102800001F2F14D83E0004002900200000F0F4FF20
:10281000CBB2092BE9D94246920605D54121C91808
:10282000C9B20A39C9B2E2E76121F8E72700434695
:102830000693209B05931F9B049303955B4602938D
:1028400001970AAB0093099B089A51464846FFF747
:1028500020FF13B0F0BCBB46B246A946A046F0BD6F
:10286000F0B5DE4657464E464546E0B595B0089071
:1028700009910A920B931E9E1F9C20AB1B789B46CE
:10288000229B9946239D269B9A463300234303D1DE
:10289000103352469A4392468023DB0057461F402E
:1028A00052461A4219D0330023432DD0002714E09A
:1028B0003033DAB27B1C98460CABDA554A462B0013
:1028C0003000210000F0D6FFA5421FD819D04346A2
:1028D0001F2B1BD8474606000C004A462B00300031
:1028E000210000F0C7FFD3B2092BE1D9524692066E
:1028F00005D54122D218D2B20A3AD2B2DAE7612221
:10290000F8E7B145E3D901E0002398465346069322
:10291000259B0593249B04934B4603935B460293AC
:10292000434601930CAB00930B9B0A9A09990898B4
:10293000FFF7AFFE15B0F0BCBB46B246A946A046B5
:10294000F0BD0000F0B5DE4657464E464546E0B5C0
:1029500091B083468A460C9298461A9C08941B9D17
:10296000099522002B002000290001F006FA00281A
:1029700000D0E5E001225242D74B2000290001F0AF
:10298000F7F9002800D0DBE001225242D34B2000AF
:10299000290001F0D7F9002800D0D1E0002200235F
:1029A000089E3000099D290001F0CCF9002800D0D4
:1029B000DDE008980999069007918023DB001E9AB4
:1029C0001A400D921E9A1A4201D106231C930698B2
:1029D000079904000D000A000600024300D1D1E06F
:1029E000080D4005400DBE4CA44660440A03120B7E
:1029F000BC4B13431F0001F0D3F9BB4ABB4B01F0A2
:102A00005AF9BB4ABB4B01F037F904000D00002214
:102A1000B94B3000390001F02AF9B84AB84B01F03F
:102A20004AF902000B002000290001F025F901F00D
:102A3000CFF9814601F0B4F904000D00B14AB24B60
:102A400001F039F90022B14B01F016F901F0C0F99B
:102A50000600AF4AAF4B2000290001F02CF904001A
:102A60000D00300001F09CF9AB4AAC4B01F023F9AA
:102A700002000B002000290001F0F9F804000D000D
:102A800002000B0001F017F90A900B91A44BF31808
:102A900000261F0522002B002000290001F0ECF881
:102AA0000E900F9122002B0000208021C90501F01B
:102AB000DEF804000D0000229A4B0A980B9901F0F1
:102AC000E0F80022984B01F0D7F802000B000A98BA
:102AD0000B9901F0D6F80022944B01F0CDF80200DA
:102AE0000B000A980B9901F0CCF802000B002000B3
:102AF000290001F0C1F802000B000E980F9901F0B7
:102B0000C0F80022774B01F0B7F832003B0001F02B
:102B1000D2F806000F0004000D00069A079B01F092
:102B200027F9002830D001235B429C46E144002273
:102B30007D4B3000390001F0A4F804000D0023E0C3
:102B40001E9B04931D9B03931C9B0293089A099B55
:102B50000092019343460C9A5146584600F0FCF807
:102B600011B0F0BCBB46B246A946A046F0BD00235A
:102B7000002406930794069680231B069C46654412
:102B800007951AE7002399464B466333C62B1ED898
:102B900004261E9B1B0526D52B0023430FD0644A19
:102BA000644B0698079901F0DBF8002879D00022E1
:102BB000614B0698079901F0C5F8002871D01C9B5D
:102BC0004B4506DD4A46981A431E1C9303E0052632
:102BD000DFE700231C938023DB001E9A1A431E921A
:102BE0000026002399461D9B9E4264D29F1B022310
:102BF0001E9A1A400A921E9A134202D0002E00D04A
:102C000000274B46002B07D022002B00069807997F
:102C100001F037F8069007910022002308980999DF
:102C200001F090F8002848D1444B1E9A13400493B9
:102C300003971C9B0293069B079C009301944346B9
:102C40000C9A5146584600F087F8002E00D187E7CD
:102C50001E9B9B063DD54525441C4346020051461C
:102C60002800D8474B46DA179B1853400522059297
:102C7000013E0496002203920A3202924A46D00F85
:102C8000019000934346220051465846FFF78AFDC3
:102C90000A9B002B00D163E702005F460C9E1D9D3E
:102CA00054E01C9B002B9ED00D9B002B9BD01C9BAB
:102CB000013B1C9397E7002799E7069C079D22009C
:102CC000290080200006844661440B000692079389
:102CD000AAE76525C0E7C046FFFFEF7FFFFFEFFFD4
:102CE00001FCFFFF0000F03FFB799F501344D33FEE
:102CF000B3C8608B288AC63F0000F83F61436F630A
:102D0000A787D23F71A379094F930A400000E03FA3
:102D10001655B5BBB16B0240EF39FAFE422EE63FC5
:102D2000FF03000000002C40000024400000184079
:102D30002D431CEBE2361A3F80842E41FFF7FFFF44
:102D4000541C434651462020B8472200931BAB42F7
:102D5000F6D3100004E7C046F0B5DE4657464E46AF
:102D60004546E0B595B00690079193469946209F59
:102D70001E9A1F9B1000190000F0FFFF002831D1A0
:102D800001225242BF4B1E981F9900F0DBFF002822
:102D900037D101225242BC4B1E981F9900F0E8FF28
:102DA00000283DD10022B94B1E981F9900F0E0FF8A
:102DB000002850D10022B64B1E981F9900F0C2FF88
:102DC000002848D1002200231E981F9900F0BAFF66
:102DD000002850D100239846229B5B0500D4B6E022
:102DE000002458E0229B0393219B02930323019329
:102DF000A84B00934B465A4607990698FFF7F2FBFB
:102E00000EE1229B0393219B029304230193A24B87
:102E100000934B465A4607990698FFF7E3FBFFE0FD
:102E20000423229A1A4022990B4210D09B4B002A6D
:102E30000FD00422229903912199029101920093CB
:102E40004B465A4607990698FFF7CCFBE8E0944BAF
:102E5000EDE70322EEE7229B0493219B0393029765
:102E60001E9B1F9C009301944B465A460799069857
:102E7000FFF768FDD4E01E9A1F9B0020002100F0A0
:102E8000F6FE1E901F9101239846A5E70CAB302259
:102E90001A55013F01341F2C01D8092FF6D81E986E
:102EA0001F9900F095FF050000F07AFF02000B006B
:102EB0001E981F9900F0DBFEFA007A4B9B181A68E7
:102EC0005B680A920B9300F0F6FE0890099100F0FF
:102ED000A3FF060000F060FF02000B0008980999AC
:102EE00000F0C5FE0890099100226F4B00F040FFF2
:102EF00000282ED00136300000F04EFF02000B00FB
:102F00000A980B9900F024FF002801D00135002613
:102F1000002F2CD1280000F043FF02000B001E9868
:102F20001F9900F0A4FE06000F0000225E4B00F087
:102F300009FF002846D100225B4B3000390000F029
:102F400017FF00283ED1EB073CD501353AE00627B4
:102F500046E70022544B0898099900F0F3FE002838
:102F6000D6D1002E01D0F307D2D50136D0E7AA463C
:102F70001F2C11D8013F0A21300000F03DFC651CD8
:102F800030310CAB19550A21300000F035FC092E08
:102F90000ED906002C00EBE755461F2C0CD87B1EE3
:102FA000002F09D00CAA302111551F000134F4E77D
:102FB0002B0055461C00F0E71F2C03D80CAB2E222B
:102FC0001A5501341F2C10D80A21280000F0ECFB00
:102FD000661C30310CAB19550A21280000F0E4FBC7
:102FE000051E01D03400EDE734000323229A13407C
:102FF000012B1CD01F2C06D84346002B32D00CAB23
:103000002D221A550134229B0393219B0293019494
:103010000CAB00934B465A4607990698FFF7E2FA25
:1030200015B0F0BCBB46B246A946A046F0BD219BF8
:10303000002B13D04346002B02D10C3313420FD088
:10304000219B013B2193190003E00CAB30221A5560
:1030500001348C42CED21F2CF7D9CBE72199F8E767
:103060002199F6E7229B5B0704D50CAB2B221A555E
:103070000134C8E7229B1B07C5D50CAB20221A558B
:103080000134C0E7FFFFEFFFFFFFEF7F65CDCD41CC
:1030900065CDCDC150B6001054B6001048B6001032
:1030A00044B6001040B800100000E03FF0B5DE4626
:1030B00057464E464546E0B593B082468B4690460D
:1030C0001193002900D1EBE200275546119B187897
:1030D000002800D1E7E2252809D07C1C43463A00AD
:1030E0005946A847119B013311932700EEE701339E
:1030F00011930024119A11780B00203BD8B21028AC
:1031000003D88300D048C3589F460B00303BDBB246
:10311000092B2CD92A292FD000230A93119B1A7826
:103120002E2A39D000239A46119A1378683BD9B2D7
:10313000122976D88B00C549CB589F4601231C43E2
:1031400001321192D6E702231C4301321192D1E7DA
:1031500004231C4301321192CCE708231C430132A3
:103160001192C7E710231C4301321192C2E711A844
:10317000FFF726FA0A90D1E71C9B1A1D1C921868CB
:10318000002804DB0A90119B01331193C6E7022348
:103190001C4343420A93F6E78022D20014435A1C90
:1031A00011925A781300303BDBB2092B04D92A2A3A
:1031B00007D000239A46B7E711A8FFF701FA824625
:1031C000B2E71C9B1A1D1C921868002804DB82467B
:1031D000119B01331193A7E70020F8E780235B00E0
:1031E0002343511C119152786C2A01D01C0018E025
:1031F000C0239B001C430131119112E08023234323
:10320000511C11915278682A01D01C0009E0C0239A
:103210001C430131119104E080235B001C43013207
:103220001192119B18780300253BDAB2532A00D97A
:103230002CE29300864AD3589F4680239B001C4370
:1032400001321192EDE780235B001C4301321192A1
:10325000E7E7782809D0582838D06F2838D0622876
:1032600038D010239C430A2600E01026582833D07B
:10327000692803D0642801D00C229443630501D54A
:103280000122944369282AD0642828D0A30500D5B8
:103290009FE0E30500D5B8E0630600D4CAE01C9ABD
:1032A000111D1C911168FF220A4005940A9B04938A
:1032B00053460393029600230193009243463A003B
:1032C00059462800FFF76EFA070027E01026CDE7E1
:1032D0000826CBE70226C9E720221443C8E7A30546
:1032E00020D4E30550D4630666D51C9A111D1C91A9
:1032F0001168FF220A40D317D118594005940A9B40
:103300000493534603930296D20F019200914346D1
:103310003A0059462800FFF745FA0700119B013390
:103320001193D3E61C9BDA1D07218A431100083153
:103330001C91116853689C46DB170C930D930C9AF3
:103340000D9B100048400E90624653400F930E981C
:103350000F990C9A0D9B801A99410E900F91089429
:103360000A9B0793534606930496002305936346EE
:10337000DA0F02920090019143463A005946280024
:10338000FFF76EFA0700C9E71C9A111D1C9112681D
:10339000D317D118594005940A9B049353460393BD
:1033A0000296D20F0192009143463A0059462800F6
:1033B000FFF7F8F90700B1E7230605D51C9A111DA0
:1033C0001C910023D25E96E71C9A111D1C91126875
:1033D00091E71C9BDA1D07218A43110008311C91DB
:1033E00008940A9B0793534606930496002305937B
:1033F0000293136854680093019443463A00594677
:103400002800FFF72DFA070088E71C9A111D1C9170
:1034100005940A9B04935346039302960023019359
:103420001368009343463A0059462800FFF7BAF95B
:10343000070073E723060DD51C9A111D1C91126815
:103440001204120C31E7C0465CB60010A0B60010A2
:10345000ECB600101C9A111D1C91126825E7462835
:103460001AD01C9B0733072293431A0008321C9280
:1034700004940A9A0392524602925C681B68009375
:10348000019443463A0059462800FFF765FC0700BF
:10349000119B0133119319E620231C43E1E76728B0
:1034A00001D0472802D180231B011C43452801D0AD
:1034B000472801D120231C431C9B07330722934339
:1034C0001A0008321C9204940A9A039252460292FD
:1034D0005C681B680093019443463A0059462800F3
:1034E000FFF730FA0700119B01331193EEE5022339
:1034F0001A002240924623421FD001241C9B1A1D11
:103500001C927A1C9146187843463A005946A847BF
:103510005346002B16D1119B013311934F46D5E52D
:10352000561C434659462020B847230032005C1CF5
:103530009D42F5D83D001700E0E701233A002F0037
:103540000A9DF4E74A46A9460A9D06E0571C4346F1
:1035500059462020C84734003A00661CA542F5D8D9
:103560004D469146D7E71C9B1A1D1C921B68994635
:103570005346002B00D1013B4E4601E001361300BB
:103580003278002A02D05A1E002BF7D14B46F21A8D
:1035900010928023DB0026001E401C4203D05245BF
:1035A00001D95346109302231A0022400B92234262
:1035B00005D03A0037004C46A946554620E03A006F
:1035C000109B5F46B3462E0006E0551C434639006B
:1035D0002020B04723002A005C1C0A999942F4D8A5
:1035E00035005E46BB46109437004C46A94655460A
:1035F00006E01D000134561C43465946C8473200B8
:103600002078002804D0002FF4D06B1E002DF0D1BC
:1036100017004D460B9B002B03D1119B01331193D7
:1036200054E50A9F109B06E0561C4346594620204D
:10363000A847230032005C1C9F42F5D81700ECE736
:1036400021231C431C9B1A1D1C921B68009305948C
:1036500008230493534603931023029300230193FA
:1036600043463A0059462800FFF79CF80700119B93
:10367000013311932AE57C1C43463A005946252024
:10368000A847119B0133119327001FE57C1C43467B
:103690003A005946A847119B01331193270015E5BD
:1036A0000A4B9A4610E5AA46474502D343465A1E9E
:1036B00000E03A00434659460020D047380013B096
:1036C000F0BCBB46B246A946A046F0BDB1250010ED
:1036D0000EB410B585B0010007AC08CC03940122EC
:1036E000009452420348FFF7E1FC05B010BC08BC4F
:1036F00003B01847A92500100CB410B584B00A0017
:1037000006AC08CC0394009401000448FFF7CEFCFB
:1037100004B010BC08BC02B01847C046A925001070
:1037200000B585B0029003910121009313004A4235
:1037300002A90248FFF7BAFC05B000BDB32500108E
:1037400001480421014B1847B002002071370010D6
:1037500010B5010018231B8814221088984710BD4B
:1037600010B5010018231B8816221088984710BD39
:10377000F0B5C64600B507000E00002501239846A7
:1037800000E00135B5420AD2AC003C192068FFF7D1
:10379000DFFF20600028F4D100239846F1E740467F
:1037A00080BCB846F0BD0000124A936F9B0815D24A
:1037B0009066D166002905D0FFE7FFE7FFE7516F6C
:1037C000106F704704B580210906C21751400028C8
:1037D00000D0C84307F0B4F8002104BDF0B5146E62
:1037E000556E576F166FFFF7E3FF14665566576700
:1037F0001667F0BD000000D0114A936F9B0813D2EA
:1038000010665166002905D0FFE7FFE7FFE7516F1B
:10381000106F704704B5002801D00020C04307F0A6
:103820008FF8002104BDC046F0B5146E556E576F79
:10383000166FFFF7E5FF1466556657671667F0BD0C
:10384000000000D094464A4A926F9208624601D224
:1038500028E0C046F0B5464E346E756E776F366F11
:1038600000F020F89446424A14665566576716677A
:103870006246F0BD94463E4A926F9208624601D27B
:1038800054E0C046F0B53A4E346E756E776F366FC1
:1038900000F04CF89446364A14665566576716672A
:1038A0006246F0BD002B24DB11D000293EDA00B5C2
:1038B000C943404200D1013100F038F8C9434042C9
:1038C00000D10131DB43524200D1013300BD002A57
:1038D000EBD1002801D1002905D00020C90FC9076C
:1038E00001D1C043410800B507F022F800220023AF
:1038F00000BD00B500290ADBDB43524200D1013391
:1039000000F014F8C943404200D1013100BDC94361
:10391000404200D10131DB43524200D1013300F07B
:1039200005F8DB43524200D1013300BD002923D109
:10393000002B18D1002A0CD0BC460D4F38667A6691
:1039400000210023FFE7FFE7FFE77A6F386F674644
:103950007047002801D00748010000B506F0E8FFD5
:103960000022002300BD02000B0000200021704750
:10397000000000D0FFFFFFFF002B00D0BFE0130CC2
:1039800028D1002AE7D080B4114F39667A66FFE764
:10399000FFE730B4040C7B6F396F1B0423433B6695
:1039A0007A66FFE7FFE7FFE7C04684B27B6F3D6FB3
:1039B0001B0423433B667A66FFE7FFE7C04600230C
:1039C0002C042D0C7A6F386F00196941B0BC704718
:1039D000000000D0F0B594460025140E01D112026B
:1039E0000835140F01D112010435940F01D1920052
:1039F0000235D40F01D152000135D40B0134254FCB
:103A00007C66254C3C660E0C93B2FFE7FFE7FFE7B0
:103A10003C6F6643360C7703BE467343DF0B5B0493
:103A2000C01AB941130C7343DB18C91ACE08664398
:103A3000360CB64493B273431F0F1B01C01AB94131
:103A4000130C73431F0B1B05C01AB941860D8F025F
:103A50003E436643360C092D24DB520A7243801A1A
:103A60007703460A6643360C16235B1BDE40DF40B5
:103A7000BF1964466643821B704604350633010055
:103A8000D940A840C01900D30131A24206D2002378
:103A9000F0BD0000000000D0FFFFFFFF121B01304F
:103AA000F3D3F1E709277F1BFE406446A2B27243BD
:103AB000801A00D20139220C7243130C1204821AAC
:103AC00099410B007046043513370100F940A840B6
:103AD000801900D30131002B02D1A2420AD2F0BDDD
:103AE000013000D30131121BFAD2013BF8D1A242BE
:103AF00000D2F0BD013000D30131121BF7E7F0B561
:103B00001C0C00D080E00CB400251C0A04D11B0260
:103B1000160E3343120208351C0B04D11B01160F7D
:103B20003343120104359C0B04D19B00960F3343A1
:103B300092000235DC0B02D192185B4101351C006A
:103B4000971864410134464F7C66464C3C660E0C27
:103B5000FFE7FFE7FFE7C0463C6F6643360C77039D
:103B6000BE4697B27743C01B00D20139C01B00D2BA
:103B700001399FB27743C91BC91B170C77437E04D9
:103B8000FF0B801BB941CE086643360C0C2D33DB8E
:103B9000B644120B1F053A431B0B97B27743C01B69
:103BA00000D201399FB27743C91B170C77433E04FB
:103BB0003F0C801BB941860D8F023E436643292787
:103BC0007F1BFE400C3D7746AF40BF1930BCA2B210
:103BD000ABB272437343801A9941220C7243130CA7
:103BE0001204801A994102000B000137001BA94101
:103BF000F9D2781E0021F0BD0C277F1BFE407746CE
:103C00007F0BAF40FF19E0E700245D1C07D0144F85
:103C10007D663966FFE7FFE7FFE7FFE73C6F95B298
:103C20009EB265436643401BB141150C1E0C6543B3
:103C3000664336042F0C3E432D04401BB14199428C
:103C400004D202000B0020000021F0BD01D19042FF
:103C5000F7D3801A994101349942F2D3F6E7000074
:103C6000000000D0FFFFFFFF48404140484018B42B
:103C7000134B5B68019308BD18B4114B1B6801938B
:103C800008BD94460F4A926F920805D2624618B456
:103C90000B4BDB68019308BD0A4AF0B5146E556EF4
:103CA000576F166F6246FFF7F2FF064A14665566B5
:103CB00057671667F0BD18B4014B9B68019308BDA8
:103CC000BC0E0020000000D0FFB5504042405040E4
:103CD00059404B40594000E0FFB5154F4C00640D72
:103CE00003D0BC4204D10C0314D80020090D0905EF
:103CF0005C00640D03D0BC4204D11C030AD800222E
:103D00001B0D1B0501264B4009D44B4003D58B42AC
:103D100000D18242FFBD9942FCD19042FFBD0B43CE
:103D2000DB1803431343F5D0C9434918FFBD000016
:103D3000FF07000000B5FFF7CFFF01D0002000BD56
:103D4000012000BD00B5FFF7C7FF804100BDC046A0
:103D500000B5FFF7C1FF01D9002000BD012000BD63
:103D600000B5FFF7B1FF01D9002000BD012000BD63
:103D700000B5FFF7A9FF804100BD012040054A00C2
:103D8000121804D85A00121801D8002070470120D8
:103D900070470020704700000021002805D17047BF
:103DA000C1174840401AFAD0C90713B5064B1B6823
:103DB00098470CBC441CA2401005120B0349091B78
:103DC00009051943114310BDBC0F00201F0400005A
:103DD00010B54C00620D8023D218DB00D21A5B05AF
:103DE0007E2A10DD9E3A13DACC17090349081943DD
:103DF0005242D140640001341532202A05DAD04005
:103E00000843604310BD002010BD0846604310BD4C
:103E1000C80FC018013810BD18B4024B5B6A01937B
:103E200008BD0000BC0E002018B4024BDB6D0193EE
:103E300008BD0000BC0E0020C94211D300B54900E6
:103E40004908002200F014F8002904D4002240425E
:103E50008A41114600BD80210906002000BD0000F6
:103E600018B4024BDB6E019308BD0000BC0E0020AD
:103E700018B4024B9B6F019308BD0000BC0E0020DC
:103E800018B4024BDB6F019308BD0000BC0E00208C
:103E900010B50148FEF770FB90B8001070B5132301
:103EA0001C78012C14D0012C14DC022C02DC1F4ADB
:103EB0001F4B9A641F48FFF74BFC1F4B186070BDE7
:103EC00099001E481A4A885001331F2BF8D9EAE797
:103ED0000023FAE71A48FFF743FC05001948FFF7EB
:103EE0003FFC023803789B007F2B19DD80222900DC
:103EF0000F4800F0EDF8022CD7D1134B1A88B523E8
:103F00001B029A4209D1114B1A88114B9A4204D1D3
:103F1000104B1A88104B9A42C7D00020FEF72CFB9A
:103F20000E4B0F4A32210F48FEF78CFA693F001002
:103F3000BC0E00204C330000BC0F0020913E00104E
:103F4000534400005346000054380000D8380000A5
:103F5000494600009C38000059460000A8B80010EF
:103F60005CB9001008B9001007B56046002800D100
:103F700000BE01880A0A0230DF2AFAD1C9B28208DB
:103F800004D3028840880004104300E00068024A1D
:103F90005050039007BD0000BC0E00205143434326
:103FA000C9188C46110C83B24B4310B4040C614306
:103FB00092B280B2504362431C041B0C001910BC27
:103FC00059411304120CC01851416144704700005C
:103FD00010B50148FEF7D0FA90A9001070B5132370
:103FE0001E781848FFF7BCFB0500012E11D0012EEA
:103FF00009DDAB1E1B789B007F2B1DDD8022290075
:10400000114800F065F81148FFF7A2FB104B18604B
:1040100070BD542201000C4800F05AF8002300E063
:1040200001331F2BE3D89A00074C1259002AF7D10D
:104030009A0008481051F3E7074B084A4221084804
:10404000FEF700FA53460000C00F00204C3300007A
:10405000BC0F0020D13F001070B90010F4B900105F
:10406000A4B9001010B5040000F05AFD002804D0D7
:104070000419034B9C4200D810BD0248FEF77CFA9D
:104080000000042008BA001010B50C0001F068F818
:10409000002804D00419034B9C4200D810BD0248EC
:1040A000FEF76AFA0000042008BA001010B500F00C
:1040B00041FD10BD01480421014B1847C0020020FA
:1040C00071370010014B1B6818470000C002002028
:1040D000014B5B6818470000C002002010B50300C8
:1040E000080011001B68984710BD0000F8B50700D4
:1040F0000D001600437D002B02D0002400200CE0B0
:1041000003681100280098472DE03B7D10E0022154
:1041100015483B689847601C0134B44214DA002CFF
:10412000F3DD2B19013B1B780D3B5A425341DBB2A7
:104130002A5D0A2AF0D1002BEED1A042E7DA211A3B
:1041400028183B689847E2E7B04203DA311A28188A
:104150003B689847002E06DDAD19013D2B780D3BDD
:104160005A4253413B75F8BD90BA001070B5050036
:104170000368002B16D00C4B1C6805E0290004C90D
:104180002000FFF7B3FF2469002C09D02368002B1F
:10419000F9D0064B1B68002BF0D0A342F3D1EDE71A
:1041A00000232B6070BDC046940E0020A00E00209E
:1041B00070B505000C000B68802B05D021684B1CE6
:1041C00023606418257170BD0800FFF7CFFFF5E785
:1041D000F0B583B007000E000092019328E0A368B9
:1041E000002B04D0310038009847002827DC2469D0
:1041F000002C06D0134B1D68002DF0D0A542F6D13F
:10420000EDE70099019A104B5B6A9A4209D80E4873
:10421000806A88420FD29A4201D0012302E0002333
:1042200000E00023002B08D101200021FDF78CFBCA
:10423000064B1C68DCE70123F4E70120404203B091
:10424000F0BDC046A00E002000400540940E0020A6
:1042500010B5FDF759FB02000B1E0BDB0D480021CA
:1042600012184B41002B0BDB002B0DDB0A4806F02C
:104270006FFB10BD094B0A4A3F210A48FEF7E2F8DE
:1042800001225242084BEFE7044B054A3F21054803
:10429000FEF7D8F840420F00980C0020DCAD00106B
:1042A00078BA0010F8AD0010FFFFFF7F10B502488C
:1042B00006F036FB10BDC046980C0020F0B5CE4687
:1042C000474680B583B006000D0090461C00FFF7FE
:1042D000BFFF81466B1C05D0002C08D0194F1A4B2C
:1042E0001C6807E0300001F061FA0500F4E7174FA1
:1042F000F5E72469002C17D02368002BF9D0144B64
:104300001B68002B01D0A342F3D12A00310020000A
:10431000B8474346002BECD06B46D91D0A230B70DF
:1043200001222000B847E4E74B46002B07D16B1E63
:104330009D41E8B203B0C0BCB946B046F0BDFFF73E
:10434000B5FFF4E7DD400010940E0020ED400010B2
:10435000A00E002010B582B004006B46D81D04707A
:10436000002300220121FFF7A9FF200002B010BDA9
:1043700010B5030008001100002B05D1044B1A688A
:104380005B68FFF725FF10BD01204042FBE7C046F8
:10439000F8B1001010B5030008001400013B012B18
:1043A00006D8002300222100FFF788FF200010BD5F
:1043B00001204042FBE7012040427047012040427B
:1043C00070470120404270470300002002229A42B9
:1043D00040417047094A01E010331A001368002B6E
:1043E00008D08342F8D1002907D103691360002364
:1043F000036102E0002900D010607047940E002095
:1044000010B5064B1C6801E098472469002C03D0C6
:104410006368002BF8D1F8E710BDC046940E002069
:1044200070B5050001F0C2F904000023012201006B
:104430002800FFF743FFFFF7E3FF200070BD0000F7
:1044400070B5A2B004000E00FFF702FF05000023C4
:1044500001933300220001A90848FFF761F9040025
:1044600001A8FFF783FEFFF7CBFF002D02D120004C
:1044700022B070BDFFF71AFFF9E7C046B141001046
:104480000FB400B583B004A901C90191FFF7D8FFAB
:1044900003B008BC04B0184710B500F0F9F80120CB
:1044A00010BD0000F0B583B005000E0000240FE041
:1044B0006B46D91D0D230B700020002816D193697F
:1044C0009B06FCD40B78136001300131F5E7013411
:1044D000B44219DA0D4B1A682F5D0D4BD3185942AF
:1044E0004B415B000B495B5EBB42E1D06B46D91D83
:1044F0000F7000200028EAD193699B06FCD40B784A
:10450000136001300131F5E703B0F0BDDC1000208D
:104510000080FCBFD8100020F0B583B006000F006B
:10452000002504E06B4607331B782B702500BD4245
:1045300015DA174B1A6893691024210019401C42A0
:104540000DD16C1C75196B46D81D0029EAD19369F1
:10455000DB06FCD41368037001310130F5E70D4B25
:104560001B68002B0CD00A4B1A6850239363110070
:104570003431536B38221A4080235B010B431A609D
:10458000002D02D0280003B0F0BD033DFAE7C0467D
:10459000DC100020240E002010B5064B1B68002BF9
:1045A00006D0054A126800219163044A10689847B2
:1045B00010BDC046240E0020DC100020280E002074
:1045C00070B504000E001C4B1B681C4A9818424230
:1045D000504114300500002C03D0194A1268002AFB
:1045E00006D0002C19D0164B1C60164B1E6070BDF7
:1045F0001549FCF7DFF901212800FCF7CBF90E4B38
:104600001A685023936311003431536B38221A40D7
:1046100080235B010B431A60E5E7094A1268002A10
:10462000E1D000229A6300212800FCF7B3F9064983
:104630002800FCF7E9F9D6E7DC1000200080FCBF79
:10464000240E0020280E00209945001070B50D00A2
:104650001C000D4B1860002A0BDA002C0EDA0A4BF6
:1046600018682900FDF7D2FC01210848FFF7B2FEC7
:1046700070BD02211000FCF783F8EEE70221200054
:10468000FCF77EF8EBE7C046DC100020D0020020EB
:1046900010B5064B1B78064B1B78E1210123002245
:1046A00049020448FFF7D2FF10BDC04658C40010AD
:1046B0005CC400100040034070B50B0C0024150CC6
:1046C000002B28D1002D37D18BB291B2594300F085
:1046D0003BFA051E19D00300083B5A6803239A438E
:1046E000043A242A13D80300132A0AD90460446028
:1046F00008331B2A05D98460C460242A25D003000E
:10470000103300221A605A609A60280070BD0021A0
:10471000FFF7D8FCF9E7002D11D1151C89B292B230
:104720004A43ADB29BB26B43110C5B18190C06D116
:10473000190492B21143CAE72B1C0D1CEEE700F0DE
:1047400009F80C2300250360DFE703000461183338
:104750004461D6E7014B18687047C046E802002064
:10476000F0B5D6464F4646468146C0B58A46160045
:104770001C00012A6ADD002802D0836B002B56D072
:10478000636EDB074CD55746013E0DE06368380089
:104790005B1B636023682A005B1941462360FFF7B7
:1047A00097FC7F19761B2FD06368002B06D1210060
:1047B000484600F099FE002824D16368226835003D
:1047C00090469E4200D91D002A000A21404600F072
:1047D0007DFC0028DAD043460130C51A63682060AA
:1047E0005B1B63602A0041463800FFF771FC002321
:1047F0007B55636EDB070CD55046E0BCBA46B1462C
:10480000A846F0BD574518D000233B70636EDB0708
:10481000F2D4A3899B05EFD4A06D00F07FF9EBE7FC
:10482000A3899B05AFD4A06D00F076F9ABE700F04B
:1048300023F8636EDB07A6D4F2E7636EDB0705D4CB
:10484000A3899B0502D4A06D00F068F90020D4E78D
:1048500010B504001300034A10680A002100FFF796
:104860007FFF10BDE802002010B5024900F0C4F837
:1048700010BDC0466D720010F8B5DE4657464E4674
:104880004546E0B506003C4F380000F045F9B46BF2
:10489000002C68D1394B0322F363B8239B00F450FA
:1048A00004337568F2500833F218043BF2502800C4
:1048B000042308220021EB606C662C606C60AC6005
:1048C0002C616C61AC615C30FFF7FCFB28002C4B69
:1048D000ED619B462B622B4B58309A466B622A4BFC
:1048E0009946AB62294BEB62984600F011F9B56826
:1048F000274B280008220021EB606C662C606C605E
:10490000AC602C616C61AC615C30FFF7DBFB5B463B
:104910002B6253466B624B462800AB624346ED6107
:10492000EB62583000F0F4F8F5681A4B28000822C2
:104930000021EB606C662C606C60AC602C616C617B
:10494000AC615C30FFF7BEFB5B462B6253466B628B
:104950004B462800AB624346ED61EB62583000F0F5
:10496000D7F80123B363380000F0D8F8F0BCBB4699
:10497000B246A946A046F8BDDC0D002069480010EB
:1049800081560010AD560010ED560010195700105A
:10499000090001001200020010B5024800F0BCF846
:1049A00010BDC046D80D002010B5024800F0B6F882
:1049B00010BDC046D80D0020F0B5C646B8238846C5
:1049C000002600B59B00C7187B68BC685D1E0CD430
:1049D000A389012B06D90E22A35E013302D0200049
:1049E000C04706436834013DF2D23F68002FEBD147
:1049F000300080BCB846F0BDF8B54746CE4680B51D
:104A0000B827804689460026BF0047447B68BC68BB
:104A10005D1E0DD4A389012B07D90E22A35E01339D
:104A200003D021004046C84706436834013DF1D217
:104A30003F68002FEAD13000C0BCB946B046F8BD8F
:104A4000F0B5C64600B51D00170086B001AB039354
:104A500001236F43061E90460C9C01910297059717
:104A6000049302D0836B002B34D0636EDB0726D413
:104A7000A2890C23E15E93051ED580239B011A4277
:104A800005D10B43626EA381184B1340636621006E
:104A9000300003AA02F09AFE636E00281DD0DB07E7
:104AA00011D505984146381AFEF7A6FE05002800E4
:104AB00006B080BCB846F0BDA06D00F02DF80C2308
:104AC000E15EA289D9E7A3899B05EAD4A06D00F035
:104AD00025F8E6E7FFF7D0FEC7E7DB07E7D4A389B1
:104AE0009B05E4D4A06D00F019F8E0E7FFDFFFFFBD
:104AF00010B50400054882B00068009313000A0056
:104B00002100FFF79DFF02B010BDC046E802002063
:104B10007047C0467047C0467047C0467047C046A1
:104B200010B5034B0100186800F00EF810BDC04628
:104B3000E802002010B5034B0100186802F064FD84
:104B400010BDC046E8020020F0B54E464546DE46A0
:104B50005746E0B50D000B35060083B0162D22D860
:104B6000102900D9B2E000F0EBFA1025182302203A
:104B7000CC4FFB181A005C68083A944200D1B5E0AB
:104B8000032362689A431300E268A168CA609160D7
:104B90000122E318596830000A435A6000F0D8FA3D
:104BA0002000083095E007239D4300D58EE0A94200
:104BB00000D98BE000F0C4FAFC235B009D4200D2D8
:104BC000A7E1680A00D18BE0042800D97AE13823F4
:104BD0009846A80980443930C100B24F79184C6812
:104BE0000839A1420ED003239C4604E0002ACBDA08
:104BF000E468A14206D06246636893435A1B0F2AB9
:104C0000F4DD40463A003C690832944200D178E035
:104C100003236168994389460B00491B0F2900DD76
:104C20007BE17A613A610029B2DA802292009145F3
:104C300000D30FE15909DA0801238B40D2007968CB
:104C4000D2190B4391687B60E260A1609460CC60F4
:104C5000012182109140994259D80B4205D103227B
:104C60009043490004300B42FBD003239846C30015
:104C70009946B944CC4682466346DC68A44507D1D0
:104C80002CE1002A00DB35E1E468A44500D125E1F0
:104C90004246636893435A1B0F2AF2DD0120804687
:104CA000611905436560A068E5680837C560A860BC
:104CB00040461043F960B9604860CF6030008F60B3
:104CC000E25000F045FA2000083002E00C230020FA
:104CD000336003B0F0BCBB46B246A946A046F0BD67
:104CE00080213F2340209846890076E7DC68023027
:104CF000A34200D044E73A003C690832944200D015
:104D000086E701217B68821091409942A5D903234F
:104D1000BC6862689A439146954203D8531B0F2B97
:104D200000DD89E023004B445F4A01935F4B9346CB
:104D30001B681268EB18013200D13DE15C4A9446D1
:104D400063441B0B1B0300933000009900F05EFCD2
:104D500003008046013300D1FAE0019B834200D971
:104D6000F4E0544B00981A009A46126803009446E7
:104D7000514663440B6001991A00414500D151E14D
:104D80005B461B68013300D156E1434601995B1A2B
:104D90009A1853461A600723424641461A40019228
:104DA000194200D112E108239846881A424B009913
:104DB000804441449B1A5B1A1B051B0D0091300077
:104DC00019009B4600F022FC431C00D150E14346F1
:104DD000C01A03005B440093534652461B680121EE
:104DE0005B44136042464046BA60009A0A43426000
:104DF000BC4200D124E14A460F2A00D822E1072014
:104E00000C3A824360680140052011436160A1189B
:104E1000486088600F2A00D935E14246444652680E
:104E200026490868984200D20B60254908689842D4
:104E300000D38FE00B608DE0012229001343114362
:104E4000651961603000BD606B6000F081F9200081
:104E500008303EE75A0A042A72D9142A00D9C5E05C
:104E600011005C325B31D20008235B429C46BA18C9
:104E7000944463469A6803239846944500D19EE083
:104E8000434651689943494502D992689445F7D100
:104E9000D3689C467B686146A260E1608C60D46008
:104EA000D6E6C04618070020200B0020100E002078
:104EB0000F100000E00D002008100000080E002078
:104EC0000C0E0020142852D9542800D996E06E23E5
:104ED0009846280B80446F30C1007EE608239B462D
:104EE000073BDC449B46DA4443465246134200D01B
:104EF000C2E64CE00122E318596830000A435A60C8
:104F0000E368A268D3609A6000F022F920000830BC
:104F1000DFE62B00E80808332AE6012360191D4369
:104F2000656078613861C26082601A004B460A434E
:104F300042603000E15000F00BF920000830C8E674
:104F40009A09110039323831D2008DE7BC4260D065
:104F5000BC68626803239A43531B954202D80F2B07
:104F600000DD69E7300000F0F3F80020B1E65B23D4
:104F7000984680445C30C1002FE608235B429C4683
:104F8000E1444B469B6801384B4500D098E04346CE
:104F90000342F2D17B688B437B604900994200D980
:104FA000B5E6002904D1B2E6042294464900E24461
:104FB0000B42F9D050465AE610330093C4E68910EC
:104FC000023B8B4079680B437B6064E7009B3000B9
:104FD00043445B421B051B0D19009B4600F016FB6A
:104FE000431C00D0F3E600239B46F5E6542A2BD859
:104FF0001A0B11006F326E31D20035E7AA235B0025
:1050000098422BD8DD3B9846E80B80447830C100AD
:10501000E3E52C4B009A9A461B689C465346624433
:105020001A60ADE6090500D0AAE60200BC684A4451
:1050300001310A436260F3E65B4642461A60AAE623
:105040004446EDE641608DE7AA2149008A4224D812
:10505000DA0B110078327731D20005E71A4B98420B
:1050600024D87C239846A80C80447D30C100B4E548
:10507000009A019B94464246083B63449B1A009366
:1050800000239B46A8E621003000083102F0BCFA5C
:105090005346BC681B686268C2E60B498A420BD85B
:1050A0009A0C11007D327C31D200DDE6FE217E2398
:1050B0007F209846890090E5FE227E219200D3E66B
:1050C0007B686AE7E00D00205405000070B5CCB2A3
:1050D00083070DD0531E002A0FD0032504E00130B2
:1050E000284206D0013B08D30278A242F7D170BD16
:1050F0001300032B0CD8002B01D10020F7E7C318B5
:1051000002E001308342F8D00278A242F9D1EEE702
:10511000FF2529400D0229430D04074E0D43026867
:1051200006496A40511891433142E8D1043B0430AA
:10513000032BF4D8DFE7C04680808080FFFEFEFEB0
:1051400010B50248FFF7E8FC10BDC046D40D0020A2
:1051500010B50248FFF7E2FC10BDC046D40D002098
:10516000030010B50A0003490868190000F004F8AC
:1051700010BDC046E8020020F0B557464546DE4661
:105180004E46E0B50C000700904683B0002900D1E0
:10519000A8E045460B35FFF7D3FF162D70D8102534
:1051A0001023A84570D82600083E71680322080025
:1051B000904381460096984200DB77E0C24A30185F
:1051C00093469268824200D1CAE042680190009200
:1051D000012292465046009A8243019894468346A3
:1051E000DC44624650465268024200D071E003201F
:1051F000009ACB4682439446E3449B4550DA52469C
:105200000A4211D103213268B21A924652688A4387
:105210006146511849448B46994200DB78E04A4484
:1052200093469A4200DB78E041463800FFF78CFC59
:105230008046002820D07368B4460093012300996B
:10524000020099430B00083A6344934200D1F7E00F
:105250004A46043A242A00D9F7E003002100132A21
:1052600000D9C8E00A681A604A685A608A689A6079
:105270002100380002F0C8F93800FFF769FF07E0A5
:1052800007239D432B1E8CDA0C233B60002398469A
:10529000404603B0F0BCBB46B246A946A046F0BDAE
:1052A000D946019AD3689268D3609A604B465B1BDB
:1052B0000F2B1CD801214A4673680B4013437360BF
:1052C0004E447368194371603800FFF741FFA046F0
:1052D000DEE70842A8D103213268B21A924652682A
:1052E0008A439CE71100FFF72FFC8046D0E701209E
:1052F0007268711902400343154375604B604E4458
:105300007368083118437060380002F07DF9DBE7FC
:10531000019AD3689268D3609A6053465246DB681C
:1053200092685646D3609A604A46043A0836242A60
:105330006BD83300132A09D95346216899606168F4
:10534000D9601B2A00D98EE0083410332268D94670
:105350001A6062685A60A26834009A605646A5E7EF
:105360005068032290430D3282469446CA44AC44AE
:10537000E24552DACA0700D556E73168721A0321AE
:10538000924652688A4310180100494400918C45A6
:1053900000DD44E753465246DB689268D3609A606A
:1053A00008234A465344043A9846242A75D8132AB7
:1053B00008D95346216899606168D9601B2A71D861
:1053C0000834103322681A6062685A60A2689A60D2
:1053D000534659195B469960009B38005A1B0123BC
:1053E0001A434A605246526813401D4353465D605B
:1053F000FFF7AEFE4CE721680160616841601B2A3F
:1054000027D82100083308312CE721003000340070
:1054100002F036FCD946564648E75B460098A0465F
:105420004119996053465A1B01231A434A60416847
:105430000B401D43456038000091FFF789FE27E7C8
:1054400003225B689343994430E7210002F018FC83
:105450000EE7A1688160E168C160242A0CD02100B8
:1054600010331031FEE6A1681961E1685961242A00
:105470000BD01034183369E7226921000261020061
:105480006069183118335061ECE622699A6152461E
:1054900061692033D161183458E72100180002F007
:1054A000EFFB95E7A1681961E1685961242A02D0F0
:1054B0001034183386E722699A61524661692033B5
:1054C000D16118347EE7C04618070020092210B5C4
:1054D000818903000A400020092A00D010BD18006D
:1054E00002F008F8FAE7C046F8B505000C000028FD
:1054F00002D0836B002B45D080210C23E25EA38970
:1055000089010B4206D10A433D4B616EA2810B40DB
:10551000636693B20021616099065DD459071DD47A
:10552000D90664D508261E4240D104231A43A2811D
:105530002369002B46D0A6890C23E75EB30724D14C
:1055400023692800236022696369E169256AA84705
:10555000030060600020002B41DDF8BD216B0029B5
:10556000E6D023004033994202D0280002F04CF8E4
:1055700000232363E36B6360002BD9D0A36B00206F
:105580002360EAE7FFF778F9B6E70123A3811D4B13
:105590001D491868FFF710FA0923A7811E40092E3C
:1055A000CED12100280001F0CFFEC9E7210028005C
:1055B00001F06AFF00280FD1A289A060B24312B2A5
:1055C000A061B2E72100280002F0ACFAB3E7402264
:1055D000A38960601343A38101204042BDE7002BF3
:1055E000F5D12022A38901381343A381B5E709230C
:1055F0002B60402301201A43A2814042ADE7C04600
:10560000FFDFFFFFD4BA0010CD540010002370B5A7
:10561000064D040008002B60FCF7F4FE431C00D08C
:1056200070BD2B68002BFBD02360F9E7980E00209B
:105630000EB430B581239CB06A461FAC9B0020CCD1
:1056400093820290069000F0B1F80B4B6A460A93E1
:1056500000230E931393013BD382084B03900790D2
:105660002A00186802A92300019400F009FA1CB06E
:1056700030BC08BC03B01847A9560010E80200204F
:1056800070B50C000E25495F02F050FB002803DBCB
:10569000236D1B18236570BDA389024A1340A381A3
:1056A000F9E7C046FFEFFFFF00207047F8B50C0098
:1056B0001F000C23C95E05001600CB050AD40A4B57
:1056C000320019402800A1810E23E15E3B0001F069
:1056D000A7FDF8BD0E23E15E0022022302F00EFAC0
:1056E0000C23E15EEBE7C046FFEFFFFF70B50C0057
:1056F0000E25495F02F002FA431C06D08023A289DE
:105700005B011343A381206570BDA389014A134047
:10571000A381F9E7FFEFFFFF10B50E23C95E01F08B
:1057200093FD10BD024670B50A4392072AD11E4D63
:10573000EE0104C808C9541B9443344017D0D0B2BA
:10574000D9B2401A2106014310D190B299B2401A41
:10575000210401430AD110021902000A090A401A61
:105760002102014302D1100E190E401A70BD9A4257
:10577000DFD010BA19BA884201D9012070BD0020CB
:10578000C04370BD02780B7801300131002A09D086
:105790009A4207D102780B7801300131002A01D0FA
:1057A0009A42EFD0D01A70BD0101010110B58307F4
:1057B0000AD00300032102E001330B4205D01A781E
:1057C000002AF9D1181A10BD030019680C4A0D4CB3
:1057D0008A188A4322420FD15968094A04338A1829
:1057E0008A43224208D15968054A04338A188A43F9
:1057F0002242F1D000E001331A78002AFBD1E1E720
:10580000FFFEFEFE80808080F0B50C0004430300A4
:105810000700A40712D1032A10D9144CA4466746E6
:105820000D68134C1E002C19AC433C421BD10433B1
:10583000043A1F0004313560032AF0D80024BE1852
:1058400006E00D5D013A3D55B31A0134002D02D03A
:10585000002AF6D1F0BD0021002AFBD019700133D7
:105860009E42FBD1F6E71F00E8E7C04680808080BB
:10587000FFFEFEFE034B10B51A6801235C3200F0F8
:1058800003F810BDE8020020F0B500282AD0070078
:1058900038000C000678013702E00134AE4217D020
:1058A0002578002DF9D1002E21D07E1CB4460B00A6
:1058B0003D7802E00133002C0FD01C78A542F9D1CD
:1058C000002D0CD00023013E337063461360F0BD01
:1058D000002BDDD117600370F9E73700E5E70023FF
:1058E0009C46F2E710680028D1D10020EFE70020A5
:1058F0001660ECE7F0B557464E464546DE46824612
:10590000E0B5914688461E000A000820484F83B043
:1059100013001C78551C395D2A000842F8D12D2C43
:1059200066D02B2C29D0434B9B4600230193002E9D
:105930002BD0102E64D0370039005846FDF75CFF9D
:105940002B008C460022002107E0884212D33FD072
:105950000122794369181C7801332500303D092D57
:1059600004D9113D192D15D8373C2500AE4219DD5B
:10597000002AEADA01225242EDE72C789D1C2D4BD9
:105980009B4600230193002ED3D1302C46D00A270A
:105990000A26D1E72500613D192D03D8573C250083
:1059A000AE42E5DC002A18DB0198002800D049420D
:1059B0004846002804D0002A38D14B4642461A6097
:1059C000080003B0F0BCBB46B246A946A046F0BDF5
:1059D000AC45BDDA01225242BDE7222251460A609F
:1059E0004A465946002AEBD0013B98465946E4E71F
:1059F0002C789D1C80231B069B460123019396E770
:105A0000302C04D120222B789343582B01D010271F
:105A100092E76C781027102602358DE720222B782C
:105A20009343582BF5D00827082685E78B46DBE7FC
:105A3000D1BE0010FFFFFF7F10B5012B04D0242B37
:105A400002D8FFF757FF04E0FEF784FE1623036039
:105A5000002010BD130010B5012A09D0242A07D850
:105A6000064A14680A0001002000FFF743FF04E023
:105A7000FEF770FE16230360002010BDE802002030
:105A8000F0B557464546DE464E46E0B5D34C0D00D0
:105A9000A54402AF7B6238620C23C95E80239B0160
:105AA000194205D10B43AB81696ECD4B0B406B6640
:105AB00013780132FB647A64002B01D101F07EFA85
:105AC00000229346FA61FA633A64FA62BA633A6A68
:105AD000924608210C00C34AD25C1440114235D1D1
